:100000000C943D000C9465000C9465000C94650004
:100010000C9465000C9465000C9465000C946500CC
:100020000C9465000C9465000C9465000C946500BC
:100030000C9465000C9465000C9465000C946500AC
:100040000C942F020C9465000C949F020C9479027E
:100050000C9465000C9465000C9465000C9465008C
:100060000C9465000C9465004E41434B3A004143AB
:100070004B00524541445900E30511241FBECFEF08
:10008000D8E0DEBFCDBF24E0A0E6B2E001C01D9203
:10009000AA34B207E1F712E0A0E0B1E0E2E4F5E152
:1000A00002C005900D92A036B107D9F710E0CDE35C
:1000B000D0E004C02197FE010E94A007CC33D107F5
:1000C000C9F70E94D1020C949F0A0C940000AF92D1
:1000D000BF92CF92DF92EF92FF920F931F93CF9335
:1000E000DF936C017B018B01040F151FEB015E0197
:1000F000AE18BF08C017D10759F06991D601ED912C
:10010000FC910190F081E02DC6010995892B79F7CA
:10011000C501DF91CF911F910F91FF90EF90DF907C
:10012000CF90BF90AF900895FC01538D448D252F43
:1001300030E0842F90E0821B930B541710F0CF9681
:10014000089501970895FC01918D828D981761F0B3
:10015000A28DAE0FBF2FB11D5D968C91928D9F5FCA
:100160009F73928F90E008958FEF9FEF0895FC01A9
:10017000918D828D981731F0828DE80FF11D858D5C
:1001800090E008958FEF9FEF0895FC01918D228DEF
:10019000892F90E0805C9F4F821B91098F73992774
:1001A00008958BEA93E00E94C50021E0892B09F4B1
:1001B00020E0822F089580E090E0892B29F00E94B2
:1001C000D10081110C9400000895FC01A48DA80FAA
:1001D000B92FB11DA35ABF4F2C91848D90E0019689
:1001E0008F739927848FA689B7892C93A089B189A9
:1001F0008C91837080648C93938D848D981306C04A
:100200000288F389E02D80818F7D80830895EF92AD
:10021000FF920F931F93CF93DF93EC0181E0888FC0
:100220009B8D8C8D98131AC0E889F989808185FF90
:1002300015C09FB7F894EE89FF896083E889F98932
:1002400080818370806480839FBF81E090E0DF9134
:10025000CF911F910F91FF90EF900895F62E0B8D87
:1002600010E00F5F1F4F0F731127E02E8C8D8E1142
:100270000CC00FB607FCFACFE889F989808185FFA9
:10028000F5CFCE010E94E500F1CFEB8DEC0FFD2FF5
:10029000F11DE35AFF4FF0829FB7F8940B8FEA8964
:1002A000FB8980818062CFCF0F931F93CF93DF9321
:1002B0008C01D0E0C0E0F801EC0FFD1F64916623D3
:1002C00041F08BEA93E00E940701892B11F02196FF
:1002D000F2CFCE01DF91CF911F910F910895CF936F
:1002E000DF93EC01888D8823B9F0AA89BB89E8895E
:1002F000F9898C9185FD03C0808186FD0DC00FB604
:1003000007FCF7CF8C9185FFF2CF808185FFEDCF81
:10031000CE010E94E500E9CFDF91CF91089542E040
:1003200050E062E171E08BEA93E00C946700CF93B8
:10033000DF93EC0188E690E00E945401FE010190F9
:100340000020E9F73197AF014C1B5D0BBE018BEA32
:1003500093E00E946700DF91CF910C948F01BF92D0
:10036000CF92DF92EF92FF920F931F93CF93DF9381
:10037000CDB7DEB760970FB6F894DEBF0FBECDBF26
:100380007C016A01B22E7F936F9385E191E09F9388
:100390008F931F9280E18F938E010F5F1F4F1F93EA
:1003A0000F930E94F107B801C7010E94D7070FB64B
:1003B000F894DEBF0FBECDBF0097B1F1F8010190F8
:1003C0000020E9F731977F01E01AF10AE80EF91EE3
:1003D00062E270E0C7010E94AF07009729F18C012B
:1003E0000E191F092B2D30E00217130718F0890191
:1003F00001501109A801B701C6010E94C8070C0DE0
:100400001D1DF801108281E060960FB6F894DEBFE2
:100410000FBECDBFDF91CF911F910F91FF90EF9055
:10042000DF90CF90BF90089580E0EECFFF920F93C2
:100430001F93CF93DF93EC01F62E08811981C80139
:100440000E940707F81621F06F2DC8010E940F07C0
:10045000CE01DF91CF911F910F91FF9008951F92D0
:100460000F920FB60F9211242F933F938F939F9368
:10047000AF93BF938091A7039091A803A091A90384
:10048000B091AA033091A60326E0230F2D3758F52B
:100490000296A11DB11D2093A6038093A7039093FC
:1004A000A803A093A903B093AA038091A2039091FB
:1004B000A303A091A403B091A5030196A11DB11DB2
:1004C0008093A2039093A303A093A403B093A503E6
:1004D000BF91AF919F918F913F912F910F900FBE40
:1004E0000F901F90189529E8230F0396A11DB11DA9
:1004F000D2CF1F920F920FB60F9211242F933F93DA
:100500004F935F936F937F938F939F93AF93BF931B
:10051000EF93FF938BEA93E00E94E500FF91EF9148
:10052000BF91AF919F918F917F916F915F914F910B
:100530003F912F910F900FBE0F901F9018951F9213
:100540000F920FB60F9211242F938F939F93EF93D7
:10055000FF93E091BB03F091BC038081E091C10364
:10056000F091C20382FD1BC090818091C4038F5F14
:100570008F732091C503821741F0E091C403F0E02E
:10058000E555FC4F958F8093C403FF91EF919F91A8
:100590008F912F910F900FBE0F901F901895808113
:1005A000F4CFCF93DF93CDB7DEB7CF58D1090FB6D5
:1005B000F894DEBF0FBECDBF789484B5826084BD51
:1005C00084B5816084BD85B5826085BD85B5816057
:1005D00085BD80916E00816080936E0010928100D5
:1005E0008091810082608093810080918100816090
:1005F0008093810080918000816080938000809151
:10060000B10084608093B1008091B00081608093DC
:10061000B00080917A00846080937A0080917A00A3
:10062000826080937A0080917A008E7F80937A0036
:1006300080917A00806880937A001092C100E091E6
:10064000BB03F091BC0382E08083E091B703F0919B
:10065000B8031082E091B903F091BA0380E180837E
:100660001092C303E091BF03F091C00386E0808342
:10067000E091BD03F091BE03808180618083E091B1
:10068000BD03F091BE03808188608083E091BD034B
:10069000F091BE03808180688083E091BD03F0917A
:1006A000BE0380818F7D80838FB7F8948090A703ED
:1006B0009090A803A090A903B090AA038FBF1092B6
:1006C000A1031092A003C12CD12C76012FB7F8946E
:1006D0008091A7039091A803A091A903B091AA03C8
:1006E0002FBF88199909AA09BB0980369A4EA1051E
:1006F000B10508F015C22FB7F8948091A703909127
:10070000A803A091A903B091AA032FBF8C199D093A
:10071000AE09BF09843F9140A105B10588F082E789
:1007200090E00E9454010E948F018FB7F894C0900E
:10073000A703D090A803E090A903F090AA038FBF6D
:100740008BEA93E00E94C500892B09F4BFCF8BEAA6
:1007500093E00E94A3008A3009F0CAC1E091A0038F
:10076000F091A103E05AFD4F108244E050E06CE1AB
:1007700071E080E692E00E94BA07892B09F0B3C1CC
:100780003E0181E8680E711C26E0A3016AE671E073
:1007900084E692E00E94AF01811105C081E291E000
:1007A0000E94970179C1F3018081811103C08CE31C
:1007B00091E0F6CF8DE691E09F938F9387E791E0EC
:1007C0009F938F931F9288E18F938E010F5F1F4F2E
:1007D0001F930F930E94F107B80184E692E00E94F4
:1007E000D7070FB6F894DEBF0FBECDBF009799F0C4
:1007F000F80101900020E9F73197E01BF10B7C0133
:10080000EE0EFF1E6DE570E0C7010E94AF074C01C0
:10081000892B09F088C1C157DF4F1882CF58D040CB
:1008200048C023E0AE0144575F4F6BE072E0CE0159
:10083000C3960E94AF01882309F4C2C1C957DF4F94
:100840008881C758D040811103C081EB91E0A8CFC7
:10085000C457DF4F8881CC58D040811103C084EE4B
:1008600091E09ECF45E050E0BE0169577F4FC20145
:100870000E94C80743E050E0BE0164577F4FC101AA
:100880000E94C807C157DF4F9881CF58D0409F5F63
:10089000C157DF4F9883CF58D040EFEFEE1AFE0AD2
:1008A000F5E04F0E511C23E0220E311C9A3009F066
:1008B00044C120E1AE014D5C5F4F6FE072E084E621
:1008C00092E00E94AF01882309F4F2C04AE050E0B0
:1008D00070E060E0CE01C3960E941006C957DF4F5A
:1008E000688379838A839B83C758D0406301F12C46
:1008F000E12CF30101900020E9F73197E619F7099F
:1009000060E0EE16FF0614F4F6016081C457DF4F75
:10091000F982E882CC58D040CE0184579F4F0E9484
:100920001602FFEFEF1AFF0A2FEFC21AD20A35E0C4
:10093000E316F104F1F6C457DF4FF982E882CC5890
:10094000D040C157DF4F6881CF58D040CE01845787
:100950009F4F0E9416027E0183E6E80EF11C5801AB
:1009600006E010E0712C4801C157DF4F9881CF5845
:10097000D040791608F0A0C0D12CC12CC601800F40
:10098000911FF50101900020E9F73197EA19FB0961
:1009900060E0CE16DF0624F4F501EC0DFD1D60814C
:1009A000C457DF4F99838883CC58D040CE018457F9
:1009B0009F4F0E941602EFEFCE1ADE0AF4E0CF1628
:1009C000D104E1F6C8010496F70101900020E9F78F
:1009D000319760E0EE15FF0511F0F7016081C45713
:1009E000DF4F99838883CC58D040CE0184579F4FE6
:1009F0000E941602C8010596F70101900020E9F750
:100A00003197EE19FF0960E0329710F0F70161812C
:100A1000C457DF4F99838883CC58D040CE01845788
:100A20009F4F0E94160273940A5F1F4F33E0E30E3C
:100A3000F11C85E0A80EB11C9AE0791294CFC95739
:100A4000DF4F88819981AA81BB81C758D040892B0B
:100A50008A2B8B2BD9F08E0109571F4F82E4E82E89
:100A6000F12CC457DF4FF982E882CC58D040F8010E
:100A700061918F01CE0184579F4F0E941602FFEFB4
:100A8000EF1AFF0A26E4E216F10459F78EE690E029
:100A90000E9454010E948F0100E010E00115110531
:100AA000E9F30E94D1008823C9F30E940000F6CF29
:100AB00060E070E0CB0112CF6801F6E0CF0ED11CF0
:100AC000C457DF4F99828882CC58D04060E0CE0175
:100AD00084579F4F0E9416022FEF821A920AC81461
:100AE000D90471F7A0CF1092A1031092A00328CED1
:100AF0008D3009F425CE2091A0033091A1032F332E
:100B000091E0390708F01CCEA9014F5F5F4F509369
:100B1000A1034093A003205A3D4FF901808310CEDA
:100B200084E192E03DCE28011E01F3E62F0E311C38
:100B3000C157DF4F1882CF58D040E814F90408F0AD
:100B4000B8CE6BE770E0C7010E94AF075C01009769
:100B500009F4AFCE8815990508F0ABCE6DE770E0CB
:100B60000E94AF077C01009709F4A3CE881699066E
:100B700008F49FCE6C01CA18DB083FEFC31AD30AF2
:100B800080E3C816D10418F09FE2C92ED12CA6012B
:100B9000B501CE01C3960E94A607E3E3F0E0EC0F97
:100BA000FD1FEC0DFD1D108225E0AE0149575F4F82
:100BB0006AE671E0CE01C3960E94AF01811131CE89
:100BC0008EE791E0EDCDEBEAF3E01382128288EE3E
:100BD00093E0A0E0B0E084839583A683B78384E0AC
:100BE00091E09183808385EC90E09587848784EC05
:100BF00090E09787868780EC90E0918B808B81ECEA
:100C000090E0938B828B82EC90E0958B848B86ECCA
:100C100090E0978B868B118E128E138E148E089512
:100C2000B0E0A0E0E6E1F6E00C945B075C016B014C
:100C30007A016115710519F0FB0191838083E1143C
:100C4000F10449F0C7010297839728F060E070E053
:100C5000CB019CC05E01E5012196F5011081812F39
:100C600090E00E94FB06892BA9F71D3209F056C0BF
:100C70002196F501118101E0E114F10409F4AEC0FF
:100C8000F0E1EF16F10409F08EC0103341F48881D1
:100C90008F7D883509F083C0198122960260E0E1DA
:100CA000EE2EF12C88248A94982CA82CFFE0BF2EDD
:100CB00020E060E070E0CB0127010F2C000C6608FB
:100CC0007708FE0150ED352E310E39E0331538F43A
:100CD0003FEB310F3A31A0F549EC342E310E3E1482
:100CE0001F04BCF52F3FB9F086169706A806B90673
:100CF00070F1A30192010E941D07232D30E050E006
:100D000040E0620F731F841F951F621773078407EB
:100D10009507E8F021E021961081D3CF1B3221F412
:100D2000E5012296F501118100E0A6CF78E0E72EDB
:100D3000F12C88248A94982CA82C6FE1B62EB8CF79
:100D40003FE9310F3A3128F439EA332EC7CF2FEF7C
:100D5000E2CFC114D10431F02223E9F02197F6014A
:100D6000D183C08300FF07C09095809570956195F1
:100D70007F4F8F4F9F4F2F3F49F482E290E0909337
:100D80004904809348046FEF7FEFCB01CDB7DEB706
:100D9000E1E10C94770701FFE5CF2297E0CF10E364
:100DA000E114F10419F23AE0E316F104E9F080E10C
:100DB000E816F10409F473CFE8E0EE16F10409F443
:100DC000B8CF6FEF7FEFCB0197010F2C000C440BD6
:100DD000550B0E942D0749015A016ACF103309F4BF
:100DE00056CF9AE0E92EF12C89E9882E982CA82C70
:100DF00089E1B82E5DCF91110C940407803219F06F
:100E000089508550C8F70895992788270895F9993A
:100E1000FECF92BD81BDF89A992780B50895262FFF
:100E2000F999FECF1FBA92BD81BD20BD0FB6F894CF
:100E3000FA9AF99A0FBE01960895DB018F939F935A
:100E40000E944F07BF91AF91A29F800D911DA39F5C
:100E5000900DB29F900D11240895A1E21A2EAA1BA5
:100E6000BB1BFD010DC0AA1FBB1FEE1FFF1FA2175A
:100E7000B307E407F50720F0A21BB30BE40BF50B57
:100E8000661F771F881F991F1A9469F760957095E0
:100E9000809590959B01AC01BD01CF0108950E9402
:100EA0009107A59F900DB49F900DA49F800D911D5B
:100EB000112408952F923F924F925F926F927F92EA
:100EC0008F929F92AF92BF92CF92DF92EF92FF925A
:100ED0000F931F93CF93DF93CDB7DEB7CA1BDB0B06
:100EE0000FB6F894DEBF0FBECDBF09942A883988AB
:100EF00048885F846E847D848C849B84AA84B984B2
:100F0000C884DF80EE80FD800C811B81AA81B981BD
:100F1000CE0FD11D0FB6F894DEBF0FBECDBFED01D1
:100F20000895A29FB001B39FC001A39F700D811DC2
:100F30001124911DB29F700D811D1124911D0895E2
:100F4000EE0FFF1F0590F491E02D0994FB01DC01E9
:100F500002C001900D9241505040D8F70895FC0115
:100F60008191861721F08823D9F799270895319721
:100F7000CF010895FB01DC014150504030F08D91CC
:100F80000190801919F40020B9F7881B990B089576
:100F9000FB01DC014150504048F001900D920020CF
:100FA000C9F701C01D9241505040E0F70895FB0180
:100FB00051915523A9F0BF01DC014D914517411115
:100FC000E1F759F4CD010190002049F04D91401511
:100FD0004111C9F3FB014111EFCF81E090E001978E
:100FE0000895AEE0B0E0E7EFF7E00C9468070D89F4
:100FF0001E898F89988D26E02C831A83098397FF99
:1010000002C080E090E801979E838D83AE01455E2B
:101010005F4F698D7A8DCE0101960E9421084D8126
:101020005E8157FD0AC02F813885421753070CF4A3
:101030009A01020F131FF80110822E96E4E00C941F
:101040008407ABE0B0E0E7E2F8E00C945A077C01DB
:101050003B018A01FC0117821682838181FFC8C18E
:10106000CE0101965C01F7019381F30193FD859117
:1010700093FF81913F01882309F453C1853239F4EC
:1010800093FD859193FF81913F01853229F4B7014A
:1010900090E00E94110AE7CF912C212C312CFFE126
:1010A000F31538F08B3211F190F4803209F183326C
:1010B00029F137FC3CC020ED280F2A3050F536FED0
:1010C00020C08AE0989E200D1124922E06C08D32F9
:1010D00091F0803371F7689430F8F30193FD8591B6
:1010E00093FF81913F018111DACF21C0689431F8DB
:1010F000689432F8F2CF689433F8EFCF689434F8FC
:10110000ECCFEAE02E9E200D1124222E689435F8B3
:10111000E4CF8E3229F436FC04C1689436F8DDCF72
:101120008C3619F4689437F8D8CF8836B1F2982FF6
:101130009F7D95549330E0F08336A1F18337C1F160
:10114000833509F063C02801F2E04F0E511CF8010D
:10115000C080D180692D70E036FC02C06FEF7FEF58
:10116000C6010E94FB094C01689437F882010AC04D
:101170000C5F1F4FFFE3F98388248394912C650152
:10118000E89437F833FE2DC0522C8114910471F588
:10119000552009F468CFB70180E290E00E94110A5F
:1011A0005A94F6CFF801808189830E5F1F4FE4CFF8
:1011B0002801F2E04F0E511CF801C080D180692D4A
:1011C00070E036FC02C06FEF7FEFC6010E94060A96
:1011D0004C018201D5CFB70180E290E00E94110A54
:1011E0002A942814190409F0B0F7CECFF60137FC81
:1011F000859137FE81916F01B70190E00E94110A3D
:1012000051105A94F1E08F1A9108BFCF843619F02B
:10121000893609F077C0F80137FE6BC060817181B3
:10122000828193810C5F1F4FF32DFF763F2E97FF36
:1012300009C090958095709561957F4F8F4F9F4F16
:10124000689437F82AE030E0A5010E94410AC82ED0
:10125000CA188C2C432C36FE0CC0E89440F8C914F4
:1012600040F434FE05C032FC03C0F32DFE7E4F2E49
:10127000892C44FE95C0FE01EC0DF11D8081803368
:1012800009F087C0242D297E422E842D8870582E87
:1012900043FC95C040FE8FC09C2C821418F42C0C8B
:1012A000922C981844FE91C0B70180E390E00E9410
:1012B000110A42FE09C088E790E041FE02C088E5BD
:1012C00090E0B7010E94110AC91408F48AC0CA94B8
:1012D000D12C9FEFC91AD90ACA0CDB1CF6018291E6
:1012E0006F01B70190E00E94110AAC14BD04B1F780
:1012F0004FCF60817181072E000C880B990B0E5F18
:101300001F4F92CFD32CE894D4F82AE030E08537F1
:1013100039F1232D297FD22E8F3601F148F48835FB
:10132000A9F0F701868197812B96E2E10C9476076C
:10133000803749F08837A9F7D4FE02C06894D2F804
:1013400020E130E00DC06894D4F8F6CF34FE03C03D
:10135000822F8660D82E20E132E002C028E030E003
:10136000F801D7FE0FC060817181828193810C5F8B
:101370001F4FA5010E94410AC82ECA183D2CE894AF
:1013800037F867CF6081718190E080E00E5F1F4F7A
:10139000F0CF42FC02C0839478CF8394839475CFBE
:1013A000842D867809F471CFF6CFB70180E290E002
:1013B0000E94110A83948214C0F3512C73CF522CD3
:1013C0005818821408F46ECFF8CF842D867809F46B
:1013D0007BCF8BE241FE80E247FC8DE2B70190E0DB
:1013E00071CFB70180E390E00E94110A9A946CCF0C
:1013F0008FEF9FEF99CFFC01059061507040011075
:10140000D8F7809590958E0F9F1F0895FC0161502D
:10141000704001900110D8F7809590958E0F9F1F16
:1014200008950F931F93CF93DF93182F092FEB018C
:101430008B8181FD09C01FEF0FEF812F902FDF916E
:10144000CF911F910F91089582FF14C02E813F818B
:101450008C819D81281739073CF4E881F981CF01FF
:1014600001969983888310838E819F8101969F8343
:101470008E83E3CFE885F985812F0995892BA1F328
:10148000DACFFA01AA27283051F1203181F1E8940E
:101490006F936E7F6E5F7F4F8F4F9F4FAF4FB1E067
:1014A0003ED0B4E03CD0670F781F891F9A1FA11D62
:1014B000680F791F8A1F911DA11D6A0F711D811D63
:1014C000911DA11D20D009F468943F912AE0269F28
:1014D00011243019305D3193DEF6CF010895462F87
:1014E0004770405D4193B3E00FD0C9F7F6CF462F68
:1014F0004F70405D4A3318F0495D31FD40524193D1
:1015000002D0A9F7EACFB4E0A6959795879577958D
:101510006795BA95C9F700976105710508959B0114
:10152000AC010A2E06945795479537952795BA959D
:10153000C9F7620F731F841F951FA01D0895F894AB
:02154000FFCFDB
:10154200000000000701670094006F01C500A300BE
:10155200B7000D0A00222573223A22004346473A79
:1015620000D09BD0B8D0BFD181D0B2D0B0202769F3
:10157200642720D0BFD0BED0BBD0B500D09DD0B59F
:10158200D0B2D0B0D0BBD0B8D0B4D0BDD0B020D0C3
:10159200B4D18AD0BBD0B6D0B8D0BDD0B020D0BDE7
:1015A200D0B0206D6F64756C6520696400636F6EE6
:1015B20073756D65727300222573223A5B00D09DAC
:1015C200D0B5D0B2D0B0D0BBD0B8D0B4D0B5D0BDE9
:1015D20020D0BAD0BED0BDD181D183D0BCD0B0D1C1
:1015E20082D0BED18020D0B7D0B0D0BFD0B8D18108
:1015F20000D09DD0B5D0B2D0B0D0BBD0B8D0B4D08E
:10160200BDD0B020D0B4D18AD0BBD0B6D0B8D0BD76
:10161200D0B020D0BDD0B020636F6E73756D65728F
:1016220020696400D09DD0B5D0B2D0B0D0BBD0B8C4
:10163200D0B4D0BDD0B020D0B4D18AD0BBD0B6D037
:10164200B8D0BDD0B020D0BDD0B02070696E0066D9
:101652007265710054696D656F7574202D20D0BD5F
:10166200D18FD0BCD0B02043464720D0BFD0B0D01D
:10167200BAD0B5D18220D0B220D180D0B0D0BCD0E7
:10168200BAD0B8D182D0B520D0BDD0B020D0BFD191
:1016920080D0BED0B7D0BED180D0B5D186D0B00078
:00000001FF
