:100000000C9444010C9437060C9410060C946C016B
:100010000C946C010C94B6060C946C010C946C015D
:100020000C946C010C946C010C946C010C946C019C
:100030000C946C010C946C010C946C010C946C018C
:100040000C94C6050C946C010C9484060C945E060A
:100050000C946C010C946C010C946C010C946C016C
:100060000C946C010C946C0100000000230026002D
:100070002900203D204F464600203D204F4E0020C5
:10008000202000207374617465733A005B5458201B
:1000900053544154455F524553505D204D5F494490
:1000A0003D005B52585D20D0BDD0B5D0BFD0BED092
:1000B000B7D0BDD0B0D18220D180D0B0D0B7D0BC25
:1000C000D0B5D1803D0020202D3E20D0BDD0B52020
:1000D000D0B520D0B7D0B020D0BCD0B5D0BD2C206A
:1000E000D0B8D0B3D0BDD0BED180D0B8D180D0B040
:1000F000D0BD0020202D3E20D0B7D0B020D0BCD025
:10010000B5D0BD2C20D0B8D0B7D0BFD180D0B0D121
:1001100089D0B0D0BC20D181D18AD181D182D0BE4A
:10012000D18FD0BDD0B8D18F00206D61726B657258
:100130003D3078005B52582053544154455F52453E
:10014000515D204D5F49443D0020202D3E20D0BD13
:10015000D0B520D0B520D0B7D0B020D0BCD0B5D04D
:10016000BD2C20D0B8D0B3D0BDD0BED180D0B8D1B6
:1001700080D0B0D0BD0020636F6D3D30780020434B
:100180005F49443D005B525820434D445D204D5F24
:1001900049443D00202D20D0BDD0B5D0B2D0B0D044
:1001A000BBD0B8D0B4D0BDD0B020D0BAD0BED0BCB7
:1001B000D0B0D0BDD0B4D0B000202D20D0BAD0BEA9
:1001C000D0BDD181D183D0BCD0B0D182D0BED180BE
:1001D00020D0BDD0B520D181D18AD189D0B5D181EF
:1001E000D182D0B2D183D0B2D0B0005B52454A4563
:1001F00043545D200029202D3E204C4F57002920DC
:100200002D3E204F4E00202870696E20005B45581F
:1002100045435D20004E41434B5D200041434B5D13
:1002200020005B545820005B54582048425D204D0C
:100230005F49443D00000000080002010000030483
:10024000070000000000000000000000002500285A
:10025000002B0000000000240027002A00040404F2
:10026000040404040402020202020203030303035F
:10027000030102040810204080010204081020013C
:10028000020408102000C00611241FBECFEFD8E0E2
:10029000DEBFCDBF23E0ACEAB1E001C01D92A138C2
:1002A000B207E1F711E0A0E0B1E0E8EDFAE102C049
:1002B00005900D92AC3AB107D9F711E0C4E4D1E052
:1002C00004C02197FE010E94490DC334D107C9F72C
:1002D0000E9419070C946A0D0C94000090E0FC0138
:1002E000EF58FD4F2491835A9D4FFC018491882340
:1002F00099F090E0880F991FFC01ED5AFD4FA591F0
:10030000B491FC01E75BFD4F859194918FB7F89410
:10031000EC91E22BEC938FBF0895833081F028F4A9
:10032000813099F08230A9F008958730A9F08830A3
:10033000C9F08430B1F4809180008F7D03C080913A
:1003400080008F7780938000089584B58F7784BD77
:10035000089584B58F7DFBCF8091B0008F77809317
:10036000B00008958091B0008F7DF9CF1F93CF9397
:10037000DF93282F30E0F901EB5CFD4F8491F90108
:10038000EF58FD4FD491F901E35AFD4FC491CC23AE
:10039000A9F0162F81110E948D01EC2FF0E0EE0FD5
:1003A000FF1FE75BFD4FA591B4918FB7F894EC91D7
:1003B000111108C0D095DE23DC938FBFDF91CF9160
:1003C0001F910895DE2BF8CF3FB7F8948091BD02BE
:1003D0009091BE02A091BF02B091C00226B5A89B29
:1003E00005C02F3F19F00196A11DB11D3FBFBA2FC7
:1003F000A92F982F8827BC01CD01620F711D811D87
:10040000911D43E0660F771F881F991F4A95D1F70A
:1004100008958F929F92AF92BF92CF92DF92EF9208
:10042000FF920E94E4014B015C018AE0C82ED12CAE
:10043000E12CF12C0E94E401681979098A099B09D1
:10044000683E734081059105A8F321E0C21AD108E6
:10045000E108F10888EE880E83E0981EA11CB11C0B
:10046000C114D104E104F10429F7FF90EF90DF906B
:10047000CF90BF90AF909F908F9008952FB7F89432
:100480006091B9027091BA028091BB029091BC0256
:100490002FBF08950895AF92BF92CF92DF92EF924F
:1004A000FF920F931F93CF93DF936C017B018B011E
:1004B000040F151FEB015E01AE18BF08C017D1076E
:1004C00059F06991D601ED91FC910190F081E02DF8
:1004D000C6010995892B79F7C501DF91CF911F914D
:1004E0000F91FF90EF90DF90CF90BF90AF90089565
:1004F000FC01538D448D252F30E0842F90E0821B2A
:10050000930B541710F0CF96089501970895FC01AE
:10051000918D828D981761F0A28DAE0FBF2FB11D06
:100520005D968C91928D9F5F9F73928F90E008955E
:100530008FEF9FEF0895FC01918D828D981731F018
:10054000828DE80FF11D858D90E008958FEF9FEF6C
:100550000895FC01918D228D892F90E0805C9F4F42
:10056000821B91098F739927089581EC92E00E9474
:10057000A90221E0892B09F420E0822F089580E070
:1005800090E0892B29F00E94B50281110C940000A3
:100590000895FC01A48DA80FB92FB11DA35ABF4F18
:1005A0002C91848D90E001968F739927848FA68972
:1005B000B7892C93A089B1898C91837080648C93C6
:1005C000938D848D981306C00288F389E02D808175
:1005D0008F7D80830895EF92FF920F931F93CF93A7
:1005E000DF93EC0181E0888F9B8D8C8D98131AC06E
:1005F000E889F989808185FF15C09FB7F894EE8955
:10060000FF896083E889F9898081837080648083B1
:100610009FBF81E090E0DF91CF911F910F91FF90FC
:10062000EF900895F62E0B8D10E00F5F1F4F0F73A4
:100630001127E02E8C8D8E110CC00FB607FCFACF5F
:10064000E889F989808185FFF5CFCE010E94C90232
:10065000F1CFEB8DEC0FFD2FF11DE35AFF4FF08230
:100660009FB7F8940B8FEA89FB8980818062CFCF96
:100670000F931F93CF93DF938C01D0E0C0E0F8017C
:10068000EC0FFD1F6491662341F081EC92E00E9423
:10069000EB02892B11F02196F2CFCE01DF91CF91A1
:1006A0001F910F910895CF93DF93EC01888D8823DC
:1006B000B9F0AA89BB89E889F9898C9185FD03C0C5
:1006C000808186FD0DC00FB607FCF7CF8C9185FFAA
:1006D000F2CF808185FFEDCFCE010E94C902E9CF24
:1006E000DF91CF9108950F931F93CF93DF93EC0188
:1006F000062F142F60E088890E94B6019C858D85A5
:100700009CBD8DBD0EBD00000DB407FEFDCF8EB5A6
:100710001EBD00000DB407FEFDCF1EB561E0888947
:100720000E94B601812FDF91CF911F910F91089503
:1007300040E00C94730310927C0310927B036DE1F4
:100740008FE593E00E949803482F4E7F6DE98FE577
:1007500093E00C947303CF92DF92EF92FF92CF93CA
:10076000DF936DE18FE593E00E94980390E034E021
:10077000959587953A95E1F78A3091050CF042C03E
:10078000FC01EE0FFF1FE80FF91FEC5FFE4FC0806A
:10079000D180E2800E2C000CFF086EE18FE593E023
:1007A0000E949803D82F66E28FE593E00E94980399
:1007B000C82FD295DF7021E030E040E050E004C067
:1007C000220F331F441F551FDA95D2F7C701B60118
:1007D0000E942A0D68EE73E080E090E00E942A0DEE
:1007E000213131054105510594F04C2F486066EAEE
:1007F0008FE593E0DF91CF91FF90EF90DF90CF9066
:100800000C947303CC24CA94DC2C7601C6CF4C2FF5
:10081000477FEDCF62E18FE593E00E94980383FF6D
:10082000F9CF48E062E98FE593E00C9473030895F3
:100830000F931F93CF93DF93EC01E881F98100843C
:10084000F185E02D0995892BB1F06DE0CE010E9474
:100850009803082F60E0CE010E949803182F402FC4
:100860006DE8CE010E947303812F90E0DF91CF915C
:100870001F910F9108958FEF9FEFF8CFCF93DF93E4
:10088000EC01E881F9810084F185E02D0995892B3F
:1008900069F08A8D9B8D01969B8F8A8F60E0CE01D7
:1008A0000E94980390E0DF91CF9108958FEF9FEF22
:1008B000FACF8F929F92AF92BF92EF92FF920F93D7
:1008C0001F93CF93DF937B018C01D0E0C0E00E94A7
:1008D0003E0260936703709368038093690390936B
:1008E0006A038FE593E00E943E0497FF27C00E94B1
:1008F0003E028090670390906803A0906903B090D7
:100900006A03681979098A099B09809063039090AA
:100910006403A0906503B0906603681579058A05A5
:100920009B05F8F2CE01DF91CF911F910F91FF90BF
:10093000EF90BF90AF909F908F900895F8018193B2
:100940008F012196EC16FD0611F6ECCFCF93DF93C5
:10095000EC0163E10E94980390E02A8D3B8D821B9D
:10096000930BDF91CF910895AF92BF92CF92DF9218
:10097000FF920F931F93CF93DF936C015B01EA010A
:1009800062E20E949803F82E90E09C012C0F3D1F1C
:100990002F3F310529F020F0CFEFD0E0C81BD90B55
:1009A0008501AC0EBD1E0A151B0541F0F8014191F1
:1009B0008F0160E8C6010E947303F5CF4C2F4F0DE5
:1009C00062EAC6010E947303CE01DF91CF911F91AD
:1009D0000F91FF90DF90CF90BF90AF900895CF938D
:1009E000DF931F92CDB7DEB76983DC01ED91FC91F7
:1009F0000280F381E02D41E050E0BE016F5F7F4F48
:100A000009950F90DF91CF91089590E080E00895CF
:100A1000FC0101900020E9F73197AF01481B590B09
:100A2000BC0181EC92E00C944B028F929F92AF92AA
:100A3000BF920F931F93CF93DF93CDB7DEB7A197EC
:100A40000FB6F894DEBF0FBECDBF19A2423008F436
:100A50004AE08E010F5D1F4F842E912CB12CA12CEA
:100A6000A50194010E94080DE62FB901CA01EA30E0
:100A7000F4F4E05DD801EE938D01232B242B252B7C
:100A800079F790E080E0109719F0CD010E940805F9
:100A9000A1960FB6F894DEBF0FBECDBFDF91CF9108
:100AA0001F910F91BF90AF909F908F900895E95C38
:100AB000E1CFCF93DF930E940805EC0186E491E03B
:100AC0000E9408058C0F9D1FDF91CF9108950C9413
:100AD0000805CF93DF930E943803EC0186E491E090
:100AE0000E9408058C0F9D1FDF91CF91089540E073
:100AF00060EC8FE593E00E9473030E949B0345E83E
:100B000061E88FE593E00C94730344E86DEC8FE5A6
:100B100093E00E9473034BE26BE88FE593E00E9441
:100B200073034FE869E88FE593E00C94730361E089
:100B30008FE593E00E9498038370833021F162E196
:100B40008FE593E00E94980383FF06C048E062E9C6
:100B50008FE593E00E94730341E861E88FE593E03D
:100B60000E9473030E949B0340E06DE88FE593E0D1
:100B70000E94730340E062EA8FE593E00E947303F2
:100B800081E090E0089590E080E008951F920F9238
:100B90000FB60F9211242F933F938F939F93AF9390
:100BA000BF938091B9029091BA02A091BB02B0911B
:100BB000BC023091B80226E0230F2D3758F502967B
:100BC000A11DB11D2093B8028093B9029093BA027F
:100BD000A093BB02B093BC028091BD029091BE0273
:100BE000A091BF02B091C0020196A11DB11D8093DA
:100BF000BD029093BE02A093BF02B093C002BF910A
:100C0000AF919F918F913F912F910F900FBE0F90B9
:100C10001F90189529E8230F0396A11DB11DD2CF6F
:100C20001F920F920FB60F9211242F933F934F9361
:100C30005F936F937F938F939F93AF93BF93EF9344
:100C4000FF93E0910201F09103010995FF91EF916B
:100C5000BF91AF919F918F917F916F915F914F91D4
:100C60003F912F910F900FBE0F901F9018951F92DC
:100C70000F920FB60F9211242F933F934F935F93D0
:100C80006F937F938F939F93AF93BF93EF93FF9354
:100C9000E0910001F09101010995FF91EF91BF9161
:100CA000AF919F918F917F916F915F914F913F9104
:100CB0002F910F900FBE0F901F9018951F920F92BB
:100CC0000FB60F9211242F933F934F935F936F931F
:100CD0007F938F939F93AF93BF93EF93FF9381EC99
:100CE00092E00E94C902FF91EF91BF91AF919F9155
:100CF0008F917F916F915F914F913F912F910F90C5
:100D00000FBE0F901F9018951F920F920FB60F9263
:100D100011242F938F939F93EF93FF93E091D10230
:100D2000F091D2028081E091D702F091D80282FD49
:100D30001BC090818091DA028F5F8F732091DB025C
:100D4000821741F0E091DA02F0E0EF53FD4F958F0A
:100D50008093DA02FF91EF919F918F912F910F90E5
:100D60000FBE0F901F9018958081F4CF1F920F92A5
:100D70000FB60F9211240F900FBE0F901F90189571
:100D8000E1ECF2E01382128288EE93E0A0E0B0E0A2
:100D900084839583A683B78386E291E091838083E1
:100DA00085EC90E09587848784EC90E09787868730
:100DB00080EC90E0918B808B81EC90E0938B828B28
:100DC00082EC90E0958B848B86EC90E0978B868B01
:100DD000118E128E138E148EEFE5F3E013821282C1
:100DE00088E391E09183808380E5848781E0858733
:100DF0008EE593E0978786878AE090E0918B808BE1
:100E000089E090E0938B828B82E090E0958B848BDD
:100E1000168A178A108E118E138E128E158E148ECE
:100E2000178E168E11A210A21482158216821782B6
:100E30000895CF93DF93CDB7DEB7A8970FB6F89498
:100E4000DEBF0FBECDBF789484B5826084BD84B50B
:100E5000816084BD85B5826085BD85B5816085BDB5
:100E600080916E00816080936E001092810080916D
:100E700081008260809381008091810081608093F5
:100E80008100809180008160809380008091B1001A
:100E900084608093B1008091B00081608093B00045
:100EA00080917A00846080937A0080917A008260D9
:100EB00080937A0080917A008E7F80937A0080916F
:100EC0007A00806880937A001092C100ECEAEE2EDE
:100ED000E2E0FE2E10E000E0C8010E94000DF701E4
:100EE00081937F010F5F1F4F05301105A9F7109205
:100EF000B10285E090E00E94000D182F809331022E
:100F00008B3008F046C052E3A52E52E0B52E6FEFAD
:100F1000C62E61E0D62E512C76E0E72EF12C51162C
:100F2000D9F1712C612C4701C701860D971D0E94D4
:100F3000000DF601E60DF71D8083FFEF6F1A7F0AA3
:100F400024E06216710481F7F6011482C701049649
:100F50000E94000D082F8983F6E0EF0EF11CC401FA
:100F600005960E94000D8A831B8201540A3108F005
:100F70005BC0882309F458C0CE0102960E94DA0CA7
:100F8000825FF50181935F015394F5E0CF0ED11C90
:100F9000C6CF1092310210E0E091D102F091D2025E
:100FA00082E08083E091CD02F091CE021082E09148
:100FB000CF02F091D00288E080831092D902E091B4
:100FC000D502F091D60286E08083E091D302F091C1
:100FD000D402808180618083E091D302F091D402B9
:100FE000808188608083E091D302F091D402808177
:100FF00080688083E091D302F091D40280818F7D5C
:10100000808342E3C42E42E0D42E00E0011789F031
:10101000F601F1906F018F2D0E946E0160E08F2D1F
:101020000E94B6010F5FF2CFCE0101960E94DA0C4A
:10103000A8CF8AE090E09093700380936F0389E0DB
:1010400090E0909372038093710382E090E090931C
:1010500074038093730307E612E03BE7E32E32E06C
:10106000F32E80916F030E946E0161E080916F0307
:101070000E94B60180917103909172038F3F98078F
:1010800081F00E946E0160E0809171030E94B601C0
:101090000E94090261E0809171030E94B6010E94E2
:1010A0000902DFB6F8948091AC01811122C0F801E9
:1010B0008491F7019491E82FF0E0EE0FFF1FED5AB5
:1010C000FD4FA591B4918C91982321F461E08AE0C1
:1010D0000E94B6018AE00E946E018CB580618CBDD1
:1010E0008CB580648CBD8DE00E946E018BE00E9407
:1010F0006E018091AC018F5F8093AC01DFBE62E432
:101100008FE593E00E949803823129F089E491E011
:101110000E946705A6CF40E861E88FE593E00E9452
:10112000730380E890E5AEEDB9E180937503909389
:101130007603A0937703B09378034CE666E88FE5D7
:1011400093E00E94730340E867E88FE593E00E9414
:10115000730340E068E88FE593E00E94730340E08A
:101160006EE88FE593E00E94730340E06FE88FE53F
:1011700093E00E9473036CE08FE593E00E94980374
:10118000482F43606CE88FE593E00E94730344E0CE
:1011900066EA8FE593E00E9473030E94850541E8AB
:1011A00061E88FE593E00E94730343EC61EB8FE508
:1011B00093E00E9473034AE067EB8FE593E00E949F
:1011C00073036EE18FE593E00E9498038F70482FC0
:1011D00040676EE98FE593E00E9473030E94AB03C2
:1011E0006DE18FE593E00E9498038F70482F406770
:1011F0006DE98FE593E00E9473030E94AB036DE1FC
:101200008FE593E00E949803817F482F42606DE94B
:101210008FE593E00E9473030E94850540E060EA39
:101220008FE593E00E94730348E061EA8FE593E065
:101230000E94730342E169EB8FE593E00E94730320
:101240006EE18FE593E00E949803482F44606EE9B9
:101250008FE593E00E9473030E94770580916800F8
:1012600084608093680080916D00846080936D003D
:101270000E943E026093B4027093B5028093B6025E
:101280009093B7028EE591E00E94590562E18FE5E7
:1012900093E00E949803182F0E949B03412F62E95C
:1012A0008FE593E00E94730316FFEFC015FDEDC0BC
:1012B00010927A031092790380917B0390917C03C2
:1012C00062E2892B09F463E18FE593E00E949803C1
:1012D000082F10E060E18FE593E00E949803482F0B
:1012E0006DE88FE593E00E94730341E861E88FE5C4
:1012F00093E00E9473030A30110509F445C10530DB
:10130000110509F0CEC165E070E0CE014F960E9454
:101310005904198E8F8D98A1A9A1BAA18D8B9E8B8E
:10132000AF8BB88F84E391E00E943803CE014596DD
:101330000E94670589E291E00E9438036BA170E08A
:1013400090E080E040E10E94150586E491E00E9473
:1013500008058BA1833C09F0A1C144E050E06CEA90
:1013600072E0CE014F960E944F0D892B09F096C175
:1013700083EF90E00E9469058DB69EB680913102A0
:1013800090E0019625E0289F6001299FD00C112450
:101390002DB73EB72C193D090FB6F8943EBF0FBECE
:1013A0002DBF8DB79EB701967C0184ECEDB7FEB7DB
:1013B0008183D701119684E0ECEAF2E001900D926E
:1013C0008A95E1F78CE890E00E9438038CEA92E07D
:1013D0000E94670583E890E00E946905612C95E012
:1013E000592E80913102681608F040C1862D90E098
:1013F0009C012F5F3F4F529E8001539E100D112480
:10140000980126503E4F59010E0D1F1D24E0F50195
:10141000D80101900D922A95E1F78E5C9D4FFC0159
:10142000208130E0F901EB5CFD4F8491F901EF5828
:10143000FD4F7490F901E35AFD4F4490442091F020
:1014400081110E948D01E42DF0E0EE0FFF1FE8599D
:10145000FF4FA591B491EC917E22442443947110E6
:1014600001C0412CF80144828FE790E00E943803CC
:10147000C5010E94670589E790E0411002C082E73C
:1014800090E00E9469056394ACCF61E08FE593E042
:101490000E949803863861F040E06DE88FE593E0A4
:1014A0000E94730346E861E88FE593E00E947303AE
:1014B000AAE0FA2EB2E0EB2E1091B202112309F449
:1014C0000FC18091FE0190E0F89EF001F99EF00DB1
:1014D0001124E255FE4FDE0155962F2D01900D92FD
:1014E0002A95E1F70196877099278093FE011150A4
:1014F0001093B2021BA2898D9A8DAB8DBC8D8F8FFC
:1015000098A3A9A3BAA390903102FFEFAF2EF1E008
:10151000BF2ED12CC12CC91408F06EC1860144E045
:1015200050E0BE01675E7F4FC5010E945C0DFFEF7A
:10153000CF1ADF0A25E0A20EB11C892B61F7DD8CE2
:1015400031EAD31609F4F9C182EBD81609F4EEC1D9
:10155000D12C8BEE91E00E943803CE014F960E9471
:1015600067050F3F1F4F21F489EB91E00E9438037C
:10157000D11004C084E991E00E94380386E491E030
:101580000E940805EE8E01C26AE070E0CE01459629
:101590000E94590418A68D899E89AF89B88D8CA3A5
:1015A0009DA3AEA3BFA31BA2898D9A8DAB8DBC8DCD
:1015B0008F8F98A3A9A3BAA385E891E00E9438036E
:1015C000CE0184960E9467058EE791E00E94380361
:1015D000CE014F960E94670586E791E00E9438038E
:1015E0006D8D70E090E080E040E10E94150586E49A
:1015F00091E00E94080544E050E06CEA72E0CE0100
:1016000045960E944F0D892B61F58AE0FE01759683
:10161000DE011B9601900D928A95E1F72091B202AE
:10162000283028F082E891E00E94590541CF80914E
:10163000AD0190E03AE0389FD001399FB00D112400
:10164000A255BE4FFE013B9601900D923A95E1F7EF
:101650000196877099278093AD012F5F2093B20286
:1016600027CF89E491E00E94690522CF0E94970567
:10167000A601B7018FE593E00E94B40443E861E856
:101680008FE593E00E9473030E940A040E9477058D
:101690000FB6F8949EBE0FBE8DBE0ACF86EC90E0CA
:1016A000E2CF0115110509F403CF82EA90E00E9410
:1016B0003803B801110F880B990B4AE00E941505F9
:1016C00086E491E00E9408058FE593E00E94A6045D
:1016D000892B09F4EDCE8FE593E00E943E04F4CF10
:1016E0000E943E024B015C010AE08091B302181790
:1016F00008F0B3C0C12ED12CF601EE0FFF1FEE0F84
:10170000FF1FE457FD4F80819181A281B38188162C
:101710009906AA06BB0608F49EC0198E109F700198
:101720001124F701E05CFD4F84E0DE015596019045
:101730000D928A95E1F70E949705B701645C7D4F91
:101740004AE050E08FE593E00E94B40443E861E88A
:101750008FE593E00E9473030E940A040E947705BC
:1017600082E292E00E943803F701E45CFD4F81853C
:1017700081116AC08CE192E00E943803CE01459647
:101780000E945905412F842F90E02091B302E22F4F
:10179000E150FF0B8E179F070CF059C09C012F5F83
:1017A0003F4F089FD001099FB00D1124A45CBD4F8D
:1017B000029FF001039FF00D1124E45CFD4F502FB8
:1017C00001900D925A95E1F7220F331F220F331F1C
:1017D000F901E457FD4FC080D180E280F380880F8B
:1017E000991F880F991FFC01E457FD4FC082D182D9
:1017F000E282F3824F5FC7CF0FEF1FEFA0CE422FE1
:1018000050E0F49ED001F59EB00D1124A45CBD4FB4
:10181000FE0131963F2D01900D923A95E1F7440F6C
:10182000551F440F551FFA01E457FD4FAB01BC0192
:101830004C505E4F6F4F7F4F408351836283738361
:101840002F5F2093B30238CE85E192E095CF2150EF
:101850002093B3024ACF1F5F48CF0E943E020091FF
:10186000B4021091B5022091B6023091B702601B0C
:10187000710B820B930B603E734984409105A8F174
:101880000E943E026093B4027093B5028093B60248
:101890009093B70285EC8D8B8091AC029091AD0254
:1018A000A091AE02B091AF028E8B9F8BA88FB98FA3
:1018B0000E94970545E050E0BE016B5E7F4F8FE5CB
:1018C00093E00E94B40443E861E88FE593E00E944E
:1018D00073030E940A040E94770587E292E00E9447
:1018E00038038CEA92E00E9459058091B30281117D
:1018F00010C08091B20281110CC083B7817F83BF79
:10190000F89483B7816083BF7894889583B78E7F7E
:1019100083BF80E090E0892B09F4B8CC0E94B50227
:10192000882309F4B3CC0E940000B0CC60E00F3FE4
:10193000100739F4DD24D3940CCE0F3F1007D1F3F8
:1019400061E00E5C1D4FF80180810E94B6018DE0C0
:1019500092E00E943803CE014F960E94670586E010
:1019600092E00E943803F801608170E090E080E02E
:101970004AE00E941505F1EA8EEF91E0DF1611F0C2
:1019800085EF91E00E9469051E8E0E943E022AE0CA
:10199000FE017596DE01119601900D922A95E1F7F0
:1019A0002091B302283008F42ACF87E991E00E9401
:1019B000590582CDFC0188279927E894219120328E
:1019C000E9F3293010F02E30C8F32B3241F02D32DC
:1019D00039F4689404C00E94F80C820F911D219183
:1019E00020532A30C0F31EF4909581959F4F08959F
:1019F0007AE0979F902D879F802D910D1124089557
:101A0000F999FECF92BD81BDF89A992780B50895C6
:101A1000A1E21A2EAA1BBB1BFD010DC0AA1FBB1FF2
:101A2000EE1FFF1FA217B307E407F50720F0A21B64
:101A3000B30BE40BF50B661F771F881F991F1A94D1
:101A400069F760957095809590959B01AC01BD01FB
:101A5000CF010895052E97FB1EF400940E94410DBE
:101A600057FD07D00E94080D07FC03D04EF40C94DC
:101A7000410D50954095309521953F4F4F4F5F4F09
:101A8000089590958095709561957F4F8F4F9F4FEA
:101A90000895EE0FFF1F0590F491E02D0994FB01CE
:101AA000DC0104C08D910190801921F44150504017
:101AB000C8F7881B990B0895FB01DC014150504089
:101AC00030F08D910190801919F40020B9F7881B2E
:081AD000990B0895F894FFCF73
:101AD8004A024A02781E00A02800F03C004051004B
:101AE800127A00E4A20024F40048E80190D0032010
:101AF800A10700000000EB024B0278025303A90281
:101B080087029B0200000000EF04B40405051704D7
:101B1800A6043E0418040D0A004C6F526120636F3E
:101B2800756C64206E6F74207374617274004578EC
:101B3800656375746F72206D6F64756C20D0B3D057
:101B4800BED182D0BED0B22C204D5F49443D4D302D
:101B580031005B4552525D205258206275666665B9
:101B6800722066756C6C005B4552525D2041434B98
:0C1B78002071756575652066756C6C0049
:00000001FF
