:100000000C945D000C945A030C9433030C948500FB
:100010000C9485000C9481030C9485000C9485004D
:100020000C9485000C9485000C9485000C9485003C
:100030000C9485000C9485000C9485000C9485002C
:100040000C94E9020C9485000C9485000C948500B6
:100050000C9485000C9485000C9485000C9485000C
:100060000C9485000C94850000000008000201003B
:100070000003040700000000000000000000000072
:10008000250028002B0000000000240027002A0083
:10009000040404040404040402020202020203032E
:1000A0000303030301020408102040800102040836
:1000B0001020010204081020350611241FBECFEFC6
:1000C000D8E0DEBFCDBF21E0A4E3B1E001C01D92C6
:1000D000AB36B207E1F711E0A0E0B1E0E0E9FEE005
:1000E00002C005900D92A433B107D9F710E0CDE519
:1000F000D0E004C02197FE010E944007CC35D10713
:10010000C9F70E94EA030C9446070C94000090E0A3
:10011000FC01EC55FF4F249180579F4FFC018491C7
:10012000882399F090E0880F991FFC01EA57FF4F50
:10013000A591B491FC01E458FF4F859194918FB73C
:10014000F894EC91E22BEC938FBF089590E0FC01C2
:10015000E859FF4F2491FC01EC55FF4F3491FC010D
:10016000E057FF4FE491EE23C9F0222339F023300A
:1001700001F1A8F4213019F1223029F1F0E0EE0F5D
:10018000FF1FE458FF4FA591B4918FB7F894EC91FD
:10019000611126C030953E233C938FBF08952730D0
:1001A000A9F02830C9F0243049F7809180008F7D74
:1001B00003C0809180008F7780938000DFCF84B56B
:1001C0008F7784BDDBCF84B58F7DFBCF8091B0006E
:1001D0008F778093B000D2CF8091B0008F7DF9CF20
:1001E0003E2BDACF3FB7F8948091450190914601BC
:1001F000A0914701B091480126B5A89B05C02F3FAB
:1002000019F00196A11DB11D3FBFBA2FA92F982F3C
:100210008827BC01CD01620F711D811D911D43E036
:10022000660F771F881F991F4A95D1F708958F92FF
:100230009F92AF92BF92CF92DF92EF92FF920E9475
:10024000F2004B015C018AE0C82ED12CE12CF12C8C
:100250000E94F200681979098A099B09683E734077
:1002600081059105A8F321E0C21AD108E108F1083F
:1002700088EE880E83E0981EA11CB11CC114D10425
:10028000E104F10429F7FF90EF90DF90CF90BF9049
:10029000AF909F908F90089508950F931F93CF93E1
:1002A000DF93EC01062F142F60E088890E94A600DE
:1002B0009C858D859CBD8DBD0EBD00000DB407FED7
:1002C000FDCF8EB51EBD00000DB407FEFDCF1EB5DF
:1002D00061E088890E94A600812FDF91CF911F9154
:1002E0000F910895AF92BF92CF92DF92EF92FF925B
:1002F0000F931F93CF93DF9360935F01709360011F
:1003000080936101909362016B017C01FF0CCC082A
:10031000DC2C76019B01AC016C2D7C2D8C2D9C2D51
:1003200003E10E94E806A12CE8E4BE2EF8EECF2EF1
:10033000DD24D394E12CF12C00E010E00E948B0628
:10034000F22E032F142FD52FC62FC72ED82EE92E0D
:100350004CE666E889E491E00E944D012F2D302F94
:10036000412F5D2F6C2F7C2D8D2D9E2D08E00E943E
:100370000307422F67E889E491E00E944D014F2D69
:1003800068E889E491E0DF91CF911F910F91FF9090
:10039000EF90DF90CF90BF90AF900C944D0140E074
:1003A0000C944D0110926601109265016DE189E493
:1003B00091E00E94CF01482F4E7F6DE989E491E0E2
:1003C0000C944D0162E189E491E00E94CF0183FF2A
:1003D000F9CF48E062E989E491E00C944D0161E0D5
:1003E00089E491E00E94CF018370833079F062E16B
:1003F00089E491E00E94CF0183FF06C048E062E9F2
:1004000089E491E00E944D0180E0089581E0089523
:1004100008950F931F93CF93DF93EC01E881F98147
:100420000084F185E02D0995892BB1F06DE0CE01B6
:100430000E94CF01082F60E0CE010E94CF01182F4B
:10044000402F6DE8CE010E944D01812F90E0DF9199
:10045000CF911F910F9108958FEF9FEFF8CFCF931A
:10046000DF93EC01E881F9810084F185E02D0995A5
:10047000892B69F08A8D9B8D01969B8F8A8F60E016
:10048000CE010E94CF0190E0DF91CF9108958FEFD0
:100490009FEFFACFCF93DF93EC0163E10E94CF018E
:1004A00090E02A8D3B8D821B930BDF91CF910895B5
:1004B000AF92BF92CF92DF92FF920F931F93CF9391
:1004C000DF936C015B01EA0162E20E94CF01F82E2A
:1004D00090E09C012C0F3D1F2F3F310529F020F0AB
:1004E000CFEFD0E0C81BD90B8501AC0EBD1E0A159D
:1004F0001B0541F0F80141918F0160E8C6010E949F
:100500004D01F5CF4C2F4F0D62EAC6010E944D01FF
:10051000CE01DF91CF911F910F91FF90DF90CF908F
:10052000BF90AF900895CF93DF931F92CDB7DEB702
:100530006983DC01ED91FC910280F381E02D41E0C3
:1005400050E0BE016F5F7F4F09950F90DF91CF9113
:10055000089590E080E0089544E86DEC89E491E02E
:100560000E944D014BE26BE889E491E00E944D014D
:100570004FE869E889E491E00C944D0141E861E8B5
:1005800089E491E00E944D010E94D20140E06DE8B3
:1005900089E491E00E944D0140E062EA89E491E043
:1005A0000E944D0181E090E0089560E47EE08FECD0
:1005B00099E10E94720140E060EC89E491E00E94C0
:1005C0004D010E94D20145E861E889E491E00C9474
:1005D0004D011F920F920FB60F9211242F933F934C
:1005E0008F939F93AF93BF9380914101909142016C
:1005F000A0914301B09144013091400126E0230FC6
:100600002D3758F50296A11DB11D2093400180930E
:10061000410190934201A0934301B0934401809122
:10062000450190914601A0914701B0914801019682
:10063000A11DB11D8093450190934601A0934701F0
:10064000B0934801BF91AF919F918F913F912F91AE
:100650000F900FBE0F901F90189529E8230F039657
:10066000A11DB11DD2CF1F920F920FB60F92112470
:100670002F933F934F935F936F937F938F939F93AA
:10068000AF93BF93EF93FF93E0910201F0910301C9
:100690000995FF91EF91BF91AF919F918F917F91BC
:1006A0006F915F914F913F912F910F900FBE0F90DF
:1006B0001F9018951F920F920FB60F9211242F932F
:1006C0003F934F935F936F937F938F939F93AF93DA
:1006D000BF93EF93FF93E0910001F0910101099521
:1006E000FF91EF91BF91AF919F918F917F916F910A
:1006F0005F914F913F912F910F900FBE0F901F90E0
:1007000018951F920F920FB60F9211240F900FBEE3
:100710000F901F901895CF92DF92EF92FF92CF9398
:10072000DF936DE189E491E00E94CF0190E034E035
:10073000959587953A95E1F78A3091050CF042C07E
:10074000FC01EE0FFF1FE80FF91FEA5EFE4FC080AD
:10075000D180E2800E2C000CFF086EE189E491E06C
:100760000E94CF01D82F66E289E491E00E94CF0178
:10077000C82FD295DF7021E030E040E050E004C0A7
:10078000220F331F441F551FDA95D2F7C701B60158
:100790000E946A0668EE73E080E090E00E946A06BC
:1007A000213131054105510594F04C2F486066EA2E
:1007B00089E491E0DF91CF91FF90EF90DF90CF90AF
:1007C0000C944D01CC24CA94DC2C7601C6CF4C2F5E
:1007D000477FEDCFCF93DF93CDB7DEB7C85CD109AC
:1007E0000FB6F894DEBF0FBECDBF789484B582609B
:1007F00084BD84B5816084BD85B5826085BD85B5C5
:10080000816085BD80916E00816080936E00109242
:1008100081008091810082608093810080918100BD
:10082000816080938100809180008160809380004E
:100830008091B10084608093B1008091B0008160AC
:100840008093B00080917A00846080937A008091D8
:100850007A00826080937A0080917A008E7F809304
:100860007A0080917A00806880937A001092C100AB
:1008700036E3E32E31E0F32E10E000E0C8010E94E1
:100880006206F70181937F010F5F1F4F053011054D
:10089000A9F710923B018AE090E090935A0180936F
:1008A000590189E090E090935C0180935B0182E0C4
:1008B00090E090935E0180935D018AE00E94870042
:1008C00061E0809159010E94A60080915B019091A6
:1008D0005C018F3F980781F00E94870060E0809163
:1008E0005B010E94A6000E94170161E080915B01FC
:1008F0000E94A6000E9417011FB7F894809135014D
:10090000811124C0EAE9F0E08491EEEAF0E09491EC
:10091000E82FF0E0EE0FFF1FEA57FF4FA591B491CB
:10092000EC91E92321F461E08AE00E94A6008AE0CC
:100930000E9487008CB580618CBD8CB580648CBDB5
:100940008DE00E9487008BE00E9487008091350136
:100950008F5F809335011FBF62E489E491E00E94BC
:10096000CF01823109F0E6C040E861E889E491E016
:100970000E944D0160E47EE08FEC99E10E947201DB
:1009800040E06EE889E491E00E944D0140E06FE8AC
:1009900089E491E00E944D016CE089E491E00E94BD
:1009A000CF01482F43606CE889E491E00E944D013B
:1009B00044E066EA89E491E00E944D010E94AC02A5
:1009C00041E861E889E491E00E944D0143EC61EB6C
:1009D00089E491E00E944D014AE067EB89E491E0EF
:1009E0000E944D016EE189E491E00E94CF018F7079
:1009F000482F40676EE989E491E00E944D010E9412
:100A00008B036DE189E491E00E94CF018F70482F44
:100A100040676DE989E491E00E944D010E948B03DB
:100A20006DE189E491E00E94CF01817F482F42600F
:100A30006DE989E491E00E944D010E94AC0240E022
:100A400060EA89E491E00E944D0148E061EA89E4AE
:100A500091E00E944D0142E169EB89E491E00E943E
:100A60004D018091680084608093680080916D00E2
:100A7000846080936D000E94D50280E0A82E80E003
:100A8000B82E62E189E491E00E94CF01182F0E9404
:100A9000D201412F62E989E491E00E944D0116FFE5
:100AA0004AC015FD48C01092640110926301809104
:100AB00065019091660162E2892B09F463E189E4A2
:100AC00091E00E94CF01082F10E060E189E491E0FD
:100AD0000E94CF01482F6DE889E491E00E944D010A
:100AE00041E861E889E491E00E944D01011511059A
:100AF000A9F1CE0101966C01F12CE12C4C0189E4A5
:100B000091E00E944A02892B09F492C00E151F053C
:100B100009F48EC098ECE916F10409F489C089E45F
:100B200091E00E942F02EFEFEE1AFE0AF601819388
:100B30006F01E5CFFFCF61E089E491E00E94CF0132
:100B4000863861F040E06DE889E491E00E944D0153
:100B500046E861E889E491E00E944D012FB7F894DE
:100B60008091410190914201A0914301B0914401D3
:100B70002FBF40913C0150913D0160913E01709129
:100B80003F01841B950BA60BB70B80339547A1053E
:100B9000B105D8F12FB7F8948091410190914201AD
:100BA000A0914301B09144012FBF80933C019093E9
:100BB0003D01A0933E01B0933F0160E870E58EEDEA
:100BC00099E10E94720186E0E6E3F1E0DE01119610
:100BD00001900D928A95E1F70E94EF01811102C008
:100BE0000E94BE0244E050E0BE016F5F7F4F89E487
:100BF00091E00E94580243E861E889E491E00E9494
:100C00004D010E94E2010E94D50283B7817F83BF1C
:100C1000F89483B7816083BF7894889583B78E7F7B
:100C200083BFA114B10409F42CCF0E94000029CF86
:100C300060E870E58EED99E10E9472010E94EF017B
:100C4000811102C00E94BE02A701B40189E491E0B3
:100C50000E94580243E861E889E491E00E944D0156
:100C60000E94E2010E94D50279CFE9E4F1E013820B
:100C7000128288E091E09183808380E5848781E01F
:100C8000858784E391E0978786878AE090E0918B5F
:100C9000808B89E090E0938B828B82E090E0958B53
:100CA000848B168A178A108E118E138E128E158ED3
:100CB000148E178E168E11A210A21482158216821F
:100CC00017820895F999FECF92BD81BDF89A9927B0
:100CD00080B50895052E97FB1EF400940E948106AE
:100CE00057FD07D00E941E0707FC03D04EF40C945A
:100CF000810650954095309521953F4F4F4F5F4F5E
:100D0000089590958095709561957F4F8F4F9F4F77
:100D10000895689401C0E8948F929F92CF93DF93D7
:100D20000E949706DF91CF919F908F90089588241D
:100D30009924F401E401B0E49F93AA279A158B0447
:100D40009C04ED05FE05CF05D007A10798F4AD2F53
:100D5000DC2FCF2FFE2FE92D982C892E982F872F4F
:100D6000762F652F542F432F322F2227B85031F77B
:100D7000BF9127C01B2EBF91BB27220F331F441FDB
:100D8000551F661F771F881F991F881C991CEE1F0F
:100D9000FF1FCC1FDD1FAA1FBB1F8A149B04EC057D
:100DA000FD05CE05DF05A007B10748F08A189B08AE
:100DB000EC09FD09CE09DF09A00BB10B21601A94E3
:100DC000E1F62EF49401AF01BE01CD01000C0895AF
:100DD000002E083090F0982F872F762F652F542FF4
:100DE000432F322F22270850F4CF220F331F441FE6
:100DF000551F661F771F881F991F0A95B2F7002D90
:100E0000089597FD1094002E083098F00850232F75
:100E1000342F452F562F672F782F892F912DF4CF00
:100E20001594979587957795679557954795379535
:100E300027950A95AAF71124002D0895A1E21A2EEC
:100E4000AA1BBB1BFD010DC0AA1FBB1FEE1FFF1F6E
:100E5000A217B307E407F50720F0A21BB30BE40BBE
:100E6000F50B661F771F881F991F1A9469F7609505
:100E70007095809590959B01AC01BD01CF010895BF
:100E8000EE0FFF1F0590F491E02D0994F894FFCF29
:100E90004C014C010000000093025802A902080214
:100EA0004A022F020902781E00A02800F03C0040F0
:100EB0005100127A00E4A20024F40048E80190D026
:040EC0000320A10763
:00000001FF
