:100000000C94A2000C94E00A0C94B90A0C94CA0057
:100010000C94CA000C94CA000C947E0C0C94CA0078
:100020000C94CA000C94CA000C94CA000C94CA0028
:100030000C94CA000C94CA000C94CA000C94CA0018
:100040000C946F0A0C94CA000C942D0B0C94070BA3
:100050000C94CA000C94CA000C94CA000C94CA00F8
:100060000C945F0B0C94CA0053656E736F72206E14
:100070006F64652072656164792028534854333178
:100080002B5348543231292C20667265713D005B38
:100090005741524E5D20493243206275732072658C
:1000A000636F76657279005B464154414C5D207305
:1000B0006F667477617265207265736574002041A4
:1000C0005F483D0020415F543D0020535F483D00A4
:1000D00020535F543D00545820535F49443D005B1A
:1000E0004641554C545D2073747265616B3D000050
:1000F000000000240027002A00000000002500283E
:10010000002B00040404040404040402020202029A
:1001100002030303030303010204081020408001CB
:10012000020408102001020408102000000008004A
:1001300002010000030407000000000000000000AE
:100140008F0C141111241FBECFEFD8E0DEBFCDBF3E
:1001500023E0A2E7B1E001C01D92AC31B207E1F7A4
:1001600011E0A0E0B1E0ECEFFAE202C005900D92E0
:10017000A237B107D9F710E0C1EAD0E004C0219757
:10018000FE010E944614C03AD107C9F70E940B0D28
:100190000C9471150C94000008950895FC01908151
:1001A000909528E030E081E397FF03C0990F9827EE
:1001B00001C0990F21503109B9F78181892728E0C1
:1001C00030E091E387FF03C0880F892701C0880FC3
:1001D00021503109B9F7089590E0FC01E55DFE4F2B
:1001E0002491FC01E95EFE4F3491FC01ED5FFE4F6E
:1001F000E491EE23C9F0222339F0233001F1A8F471
:10020000213019F1223029F1F0E0EE0FFF1FE75005
:10021000FF4FA591B4918FB7F894EC91611126C06E
:1002200030953E233C938FBF08952730A9F02830A6
:10023000C9F0243049F7809180008F7D03C0809100
:1002400080008F7780938000DFCF84B58F7784BD67
:10025000DBCF84B58F7DFBCF8091B0008F7780930B
:10026000B000D2CF8091B0008F7DF9CF3E2BDACF96
:10027000CF93DF9390E0FC01E95EFE4F24918D5F08
:100280009E4FFC0184918823D1F090E0880F991F44
:10029000FC01E151FF4FA591B491FC01E750FF4FE4
:1002A000C591D491623071F49FB7F8943C91822F3C
:1002B000809583238C93E8812E2B28839FBFDF9129
:1002C000CF9108958FB7F894EC912E2B2C938FBF7C
:1002D000F6CF3FB7F8948091C6019091C701A091E5
:1002E000C801B091C90126B5A89B05C02F3F19F0E0
:1002F0000196A11DB11D3FBFBA2FA92F982F8827A6
:10030000BC01CD01620F711D811D911D43E0660F7F
:10031000771F881F991F4A95D1F708958F929F9252
:10032000AF92BF92CF92DF92EF92FF924B015C01AE
:100330000E9469016B017C010E9469016C197D09B1
:100340008E099F09683E734081059105A8F321E05D
:10035000821A9108A108B10888EEC80E83E0D81E61
:10036000E11CF11C81149104A104B10429F7FF9050
:10037000EF90DF90CF90BF90AF909F908F900895B7
:100380000895AF92BF92CF92DF92EF92FF920F93B8
:100390001F93CF93DF936C017B018B01040F151F1B
:1003A000EB015E01AE18BF08C017D10759F0699183
:1003B000D601ED91FC910190F081E02DC6010995E7
:1003C000892B79F7C501DF91CF911F910F91FF9094
:1003D000EF90DF90CF90BF90AF900895FC01538DC8
:1003E000448D252F30E0842F90E0821B930B54170F
:1003F00010F0CF96089501970895FC01918D828D9C
:10040000981761F0A28DAE0FBF2FB11D5D968C9134
:10041000928D9F5F9F73928F90E008958FEF9FEF73
:100420000895FC01918D828D981731F0828DE80F2F
:10043000F11D858D90E008958FEF9FEF0895FC01E9
:10044000918D228D892F90E0805C9F4F821B9109B6
:100450008F739927089580E492E00E941F0221E0A3
:10046000892B09F420E0822F089580E090E0892B09
:1004700029F00E942B0281110C9400000895FC01C8
:10048000A48DA80FB92FB11DA35ABF4F2C91848DF5
:1004900090E001968F739927848FA689B7892C9352
:1004A000A089B1898C91837080648C93938D848DA5
:1004B000981306C00288F389E02D80818F7D8083A8
:1004C0000895EF92FF920F931F93CF93DF93EC0168
:1004D00081E0888F9B8D8C8D98131AC0E889F989EB
:1004E000808185FF15C09FB7F894EE89FF896083EE
:1004F000E889F98980818370806480839FBF81E06F
:1005000090E0DF91CF911F910F91FF90EF900895B0
:10051000F62E0B8D10E00F5F1F4F0F731127E02E8B
:100520008C8D8E110CC00FB607FCFACFE889F989C3
:10053000808185FFF5CFCE010E943F02F1CFEB8D88
:10054000EC0FFD2FF11DE35AFF4FF0829FB7F89497
:100550000B8FEA89FB8980818062CFCF0F931F9335
:10056000CF93DF938C01D0E0C0E0F801EC0FFD1FCA
:100570006491662341F080E492E00E946102892B3D
:1005800011F02196F2CFCE01DF91CF911F910F9103
:100590000895CF93DF93EC01888D8823B9F0AA8961
:1005A000BB89E889F9898C9185FD03C0808186FD2E
:1005B0000DC00FB607FCF7CF8C9185FFF2CF80817D
:1005C00085FFEDCFCE010E943F02E9CFDF91CF91B1
:1005D00008950F931F93CF93DF93EC01062F142FF1
:1005E00060E088890E94EC009C858D859CBD8DBD56
:1005F0000EBD00000DB407FEFDCF8EB51EBD000080
:100600000DB407FEFDCF1EB561E088890E94EC00A5
:10061000812FDF91CF911F910F91089540E00C94AD
:10062000E902CF92DF92EF92FF92CF93DF936DE1D9
:100630008EED92E00E940E0390E034E09595879550
:100640003A95E1F78A3091050CF042C0FC01EE0FBB
:10065000FF1FE80FF91FE25FFE4FC080D180E280EC
:100660000E2C000CFF086EE18EED92E00E940E034E
:10067000D82F66E28EED92E00E940E03C82FD2952D
:10068000DF7021E030E040E050E004C0220F331F73
:10069000441F551FDA95D2F7C701B6010E94921385
:1006A00068EE73E080E090E00E9492132131310502
:1006B0004105510594F04C2F486066EA8EED92E0BA
:1006C000DF91CF91FF90EF90DF90CF900C94E902F3
:1006D000CC24CA94DC2C7601C6CF4C2F477FEDCFBB
:1006E00008950F931F93CF93DF93EC01E881F98175
:1006F0000084F185E02D0995892BB1F06DE0CE01E4
:100700000E940E03082F60E0CE010E940E03182FF6
:10071000402F6DE8CE010E94E902812F90E0DF9129
:10072000CF911F910F9108958FEF9FEFF8CFCF9347
:10073000DF93EC01E881F9810084F185E02D0995D2
:10074000892B69F08A8D9B8D01969B8F8A8F60E043
:10075000CE010E940E0390E0DF91CF9108958FEFBC
:100760009FEFFACFCF93DF93EC0163E10E940E037A
:1007700090E02A8D3B8D821B930BDF91CF910895E2
:10078000AF92BF92CF92DF92FF920F931F93CF93BE
:10079000DF936C015B01EA0162E20E940E03F82E16
:1007A00090E09C012C0F3D1F2F3F310529F020F0D8
:1007B000CFEFD0E0C81BD90B8501AC0EBD1E0A15CA
:1007C0001B0541F0F80141918F0160E8C6010E94CC
:1007D000E902F5CF4C2F4F0D62EAC6010E94E902F3
:1007E000CE01DF91CF911F910F91FF90DF90CF90BD
:1007F000BF90AF900895CF93DF931F92CDB7DEB730
:100800006983DC01ED91FC910280F381E02D41E0F0
:1008100050E0BE016F5F7F4F09950F90DF91CF9140
:10082000089520919301260F3327331F213231057C
:10083000ECF420911602FC0190E080E0243069F095
:1008400082E00895A09193012191AC014D585E4F33
:10085000A40FB52FB11D2C930196861798F38091A4
:100860009301680F6093930180E0089581E00895FB
:10087000ECEBF0E080818A7B808360E082E10E9483
:10088000EC0060E083E10C94EC001092160281E031
:10089000809315021092F00161E082E10E94EC0069
:1008A00061E083E10E94EC00E9EBF0E080818E7F63
:1008B000808380818D7F808380E28093B80085E48F
:1008C0008093BC0008951092CF011092CE01109237
:1008D0001D0210923F020E9445048CEC90E0909320
:1008E000CD018093CC018DEC90E09093CB0180936F
:1008F000CA010895CF93DF9391E09093720188230A
:1009000061F0C091B800D091BA000E9438040E94F2
:100910004504D093BA00C093B800DF91CF910895F9
:100920008F929F92AF92BF92CF92DF92EF92FF92FF
:100930000F931F93CF93DF93D0913F02D13208F0F2
:10094000D7C0182FC0913E020E9469016B017C0143
:100950008091160281116BC082E080931602109381
:1009600015028FEF8093140210921302D09312029B
:10097000AEE1B2E0E2EFF1E080E0D81391C0109276
:10098000F1018091F101CC0FC82BC093F10180914E
:10099000F001813009F088C01092F0010E946901D5
:1009A0006B017C018091F1018093BB008091180262
:1009B00090911902A0911A02B0911B02892B8A2BE7
:1009C0008B2BA1F00E94690100911802109119026D
:1009D00020911A0230911B026C197D098E099F0922
:1009E000061717072807390708F442C08091BC0092
:1009F00083FDD8CF85EC8093BC000E9469016B0118
:100A00007C0180911602823009F450C0809114025A
:100A10008F3F09F46FC080911402803209F46CC0DA
:100A200080911402803309F469C084E026C080916B
:100A3000180290911902A0911A02B0911B02892B01
:100A40008A2B8B2B09F484CF0E94690180901802B5
:100A500090901902A0901A02B0901B026C197D09A7
:100A60008E099F0986169706A806B90608F070CF6A
:100A7000809117020E947A0485E010921D02109264
:100A80003F0210921C02DF91CF911F910F91FF90B6
:100A9000EF90DF90CF90BF90AF909F908F90089590
:100AA0009D9191938F5F69CF85EEA5CF80911802BC
:100AB00090911902A0911A02B0911B02892B8A2BE6
:100AC0008B2B09F49ECF0E946901009118021091AE
:100AD000190220911A0230911B026C197D098E09AE
:100AE0009F09061717072807390708F08ACFC0CFD4
:100AF00081E0C3CF80E0C1CF82E0BFCF83E0BDCF34
:100B0000CF93DF93EC018B818823A1F0888191E062
:100B100090931C0280933E0210921D0210923F029D
:100B200081E00E94900491E0811190E0892FDF9193
:100B3000CF9108950E94630481E08B83CE010E94CF
:100B40008005982F8111E2CFF1CF8F929F92AF92C3
:100B5000BF92CF92DF92EF92FF920F931F93CF93AA
:100B6000DF93D82FC62F142F613208F09CC00E944B
:100B700069016B017C018091160281116FC081E0D7
:100B800080931602109315029FEF90931402109217
:100B900013029C0F909312028093F1018091F10156
:100BA000DD0FD82BD093F1018091F001813009F055
:100BB0007CC01092F0010E9469016B017C01809160
:100BC000F1018093BB008091180290911902A091CD
:100BD0001A02B0911B02892B8A2B8B2BA1F00E9449
:100BE0006901009118021091190220911A023091A6
:100BF0001B026C197D098E099F0906171707280724
:100C0000390708F44CC08091BC0083FDD8CF85EC37
:100C10008093BC000E9469016B017C0180911602E7
:100C2000813009F444C0809113028C1710F4C091F4
:100C30001302E2EFF1E0A0EDB1E080E08C1359C0C7
:100C40008C2FDF91CF911F910F91FF90EF90DF904C
:100C5000CF90BF90AF909F908F9008958091180291
:100C600090911902A0911A02B0911B02892B8A2B34
:100C70008B2B09F480CF0E9469018090180290901C
:100C80001902A0901A02B0901B026C197D098E09FE
:100C90009F0986169706A806B90608F06CCF8091C2
:100CA00017020E947A04C0E0CBCF85EEB1CF8091CD
:100CB000180290911902A0911A02B0911B02892B7F
:100CC0008A2B8B2B09F4AACF0E946901009118028C
:100CD0001091190220911A0230911B026C197D09A2
:100CE0008E099F09061717072807390708F096CFBE
:100CF000D6CF91919D938F5FA1CFE091CF0180914D
:100D0000CE01E81730F4F0E0E053FE4F808190E030
:100D100008958FEF9FEF08959091CF018091CE01BC
:100D20002FEF3FEF981748F4E92FF0E0E053FE4F24
:100D3000208130E09F5F9093CF01C9010895809199
:100D4000CE019091CF01891B990B0895CF92DF922C
:100D5000EF92FF920F931F93CF93DF937C01CB0110
:100D60008A0120911C02222389F0EB016B01C40E41
:100D7000D51ECC15DD0569F06991D701ED91FC9187
:100D80000190F081E02DC7010995F3CF642F0E94F7
:100D90001104C801DF91CF911F910F91FF90EF9047
:100DA000DF90CF900895CF93DF931F92CDB7DEB73A
:100DB000698320911C022223F9F020913F02203206
:100DC00058F021E030E0FC013383228390E080E0A2
:100DD0000F90DF91CF91089580911D02E82FF0E0F0
:100DE000E25EFD4F998190838F5F80931D02809317
:100DF0003F0281E090E0ECCF61E0CE0101960E94DD
:100E00001104F7CF90E080E00895CF93DF9300D0F6
:100E1000CDB7DEB799838A83E0911603F09117036B
:100E200084819581029710F490E020C081819281A5
:100E3000208131E030931C0220933E0210921D026B
:100E400010923F02DC01ED91FC910280F381E02DD4
:100E500042E050E0BE016F5F7F4F0995029721F796
:100E600081E00E94900491E08111DECF892F0F90E4
:100E70000F90DF91CF910895FF920F931F93CF931F
:100E8000DF938B01F42E91E090931C0290E49093F9
:100E90003E0210921D0210923F02682F80E093E004
:100EA0000E94D30681E00E949004882339F080E0FC
:100EB000DF91CF911F910F91FF9008956EE170E047
:100EC00080E090E0FF2021F06AE570E080E090E0B3
:100ED0000E948E0141E063E080E40E94A50510922B
:100EE000CF018093CE01833010F380E093E00E9425
:100EF0008C06C82F80E093E00E948C0660E07C2F77
:100F0000682B792BEB01CC7F80E093E00E948C066C
:100F1000BE0190E080E0FF20D9F00E94221120E085
:100F200030E040E857E30E94831122E538EB4FE2BE
:100F300053E40E94831126E636E64BE352E40E9416
:100F40005812F801608371838283938381E0B0CF6C
:100F50000E94221120E030E040E857E30E94831114
:100F600020E030E04AEF52E40E94831120E030E0BC
:100F700040EC50E4E4CF6F927F928F929F92AF92B9
:100F8000BF92CF92DF92EF92FF920F931F93CF9376
:100F9000DF936C013B017A0110E000E0D60114966A
:100FA0008D919C91E701C01BD10B8C179D0708F414
:100FB000EC0141E0C7018C1B9D0B0817190708F4D1
:100FC00040E06C2FC13208F060E2F60180810E949F
:100FD000A5051092CF018093CE018C171D0679F5DF
:100FE0004301800E911E5401C501881999098C177F
:100FF0009D0778F4D60111968D919C91DC01ED91BD
:10100000FC910284F385E02D0995F50181935F0140
:10101000EBCF0C0F1D1F0E151F0508F4BFCF81E08D
:10102000DF91CF911F910F91FF90EF90DF90CF90C4
:10103000BF90AF909F908F907F906F90089580E0C9
:10104000EFCF0F931F93CF93DF9300D000D000D04A
:10105000CDB7DEB764E170E080E090E00E948E01E1
:1010600046E050E0BE016F5F7F4F80911603909184
:1010700017030E94BB07182F882309F452C00B8165
:10108000CE0101960E94CE00081357C00E81CE01FA
:1010900004960E94CE00081350C029813A8132275D
:1010A00023273227A7E1B1E10E9449122EE095954E
:1010B0008795779567952A95D1F76459714181098C
:1010C00091090E94241120E030E048EC52E40E9493
:1010D000C5126093100370931103809312039093D1
:1010E00013032C813D81322723273227A1E7B2E069
:1010F0000E9449123CE096958795779567953A95B9
:10110000D1F70E94221120E030E048EC52E40E9426
:10111000C51260930C0370930D0380930E0390939C
:101120000F03812F26960FB6F894DEBF0FBECDBFFA
:10113000DF91CF911F910F91089510E0F2CF44E815
:101140006DEC8EED92E00E94E9024BE26BE88EEDD1
:1011500092E00E94E9024FE869E88EED92E00C947B
:10116000E9020F931F93CF93DF9300D01F92CDB767
:10117000DEB78091160390911703009711F00E943B
:10118000E81486E090E00E944C148C0180911403D6
:101190009091150324E4F8012083928381831382C4
:1011A00080E290E0958384831093170300931603E5
:1011B0000E94630481E0F8018383C8010E948005D6
:1011C000882301F182EA90E30E9405076AE070E05B
:1011D00080E090E00E948E018DE293EF0E9405076F
:1011E00043E050E0BE016F5F7F4F80911603909106
:1011F00017030E94BB0729813A8181E02F3F3F4FAF
:1012000009F480E00F900F900F90DF91CF911F9124
:101210000F910895FC0101900020E9F73197AF018B
:10122000481B590BBC0180E492E00C94C1018F92E1
:101230009F92AF92BF920F931F93CF93DF93CDB73F
:10124000DEB7A1970FB6F894DEBF0FBECDBF19A2CF
:10125000423008F44AE08E010F5D1F4F842E912C1E
:10126000B12CA12CA50194010E947013E62FB901A5
:10127000CA01EA30F4F4E05DD801EE938D01232B2E
:10128000242B252B79F790E080E0109719F0CD0101
:101290000E940A09A1960FB6F894DEBF0FBECDBF1B
:1012A000DF91CF911F910F91BF90AF909F908F9042
:1012B0000895E95CE1CF4F925F926F927F928F9297
:1012C0009F92AF92BF92CF92DF92EF92FF920F93D5
:1012D0001F93CF936B017C01742EAC019B010E9484
:1012E0006B13882399F082E691E0CF911F910F91C3
:1012F000FF90EF90DF90CF90BF90AF909F908F9036
:101300007F906F905F904F900C940A0946015701AF
:10131000E894B7F82FEF3FEF4FE75FE7C501B4015F
:101320000E946B1381110DC02FEF3FEF4FE75FE776
:10133000C501B4010E941D1118161CF486E691E047
:10134000D4CF2FEF3FEF4FE75FE4C701B6010E9414
:10135000661318161CF48AE691E0C7CF2FEF3FEF13
:101360004FE75FECC701B6010E941D1187FDF3CF67
:1013700020E030E0A901C701B6010E941D1110E074
:1013800000E087FF0AC06DE280E492E00E94610203
:101390008C01F7FAF094F7F8F094C0E060E070E0A8
:1013A00080E09FE37C1641F020E030E040E251E431
:1013B0000E94C512CF5FF6CFA70196010E94591275
:1013C0002B013C010E9437134B015C014AE00E9453
:1013D00017097C01E00EF11ECC23C1F1C501B40157
:1013E0000E9422119B01AC01C301B2010E9458125C
:1013F0004B015C016EE280E492E00E946102E80E23
:10140000F91EC15018F120E030E040E251E4C5017E
:10141000B4010E9483112B013C010E9437134B0140
:10142000B12CA12C4AE0C501B4010E941709E80EB5
:10143000F91EC501B4010E9422119B01AC01C30138
:10144000B2010E9458124B015C01DBCFC701CF9162
:101450001F910F91FF90EF90DF90CF90BF90AF90D2
:101460009F908F907F906F905F904F90089585ED43
:101470008093BC008091180290911902A0911A02E9
:10148000B0911B020796A11DB11D23E0B695A7954B
:10149000979587952A95D1F72091BC0024FD03C02C
:1014A000109216020895409118025091190260910D
:1014B0001A0270911B02452B462B472B69F30097AC
:1014C000A105B10541F025E12A95F1F7000001974A
:1014D000A109B109E1CF809117020C947A041F92FF
:1014E0000F920FB60F9211242F933F938F939F93D8
:1014F000AF93BF938091C2019091C301A091C401A9
:10150000B091C5013091C10126E0230F2D3758F568
:101510000296A11DB11D2093C1018093C201909339
:10152000C301A093C401B093C5018091C6019091FD
:10153000C701A091C801B091C9010196A11DB11DBB
:101540008093C6019093C701A093C801B093C901CD
:10155000BF91AF919F918F913F912F910F900FBEAF
:101560000F901F90189529E8230F0396A11DB11D18
:10157000D2CF1F920F920FB60F9211242F933F9349
:101580004F935F936F937F938F939F93AF93BF938B
:10159000EF93FF93E0910201F09103010995FF9110
:1015A000EF91BF91AF919F918F917F916F915F91DB
:1015B0004F913F912F910F900FBE0F901F90189554
:1015C0001F920F920FB60F9211242F933F934F93B8
:1015D0005F936F937F938F939F93AF93BF93EF939B
:1015E000FF93E0910001F09101010995FF91EF91C6
:1015F000BF91AF919F918F917F916F915F914F912B
:101600003F912F910F900FBE0F901F9018951F9232
:101610000F920FB60F9211242F933F934F935F9326
:101620006F937F938F939F93AF93BF93EF93FF93AA
:1016300080E492E00E943F02FF91EF91BF91AF9151
:101640009F918F917F916F915F914F913F912F91DA
:101650000F900FBE0F901F9018951F920F920FB60C
:101660000F9211242F938F939F93EF93FF93E09109
:101670005002F09151028081E0915602F0915702A0
:1016800082FD1BC09081809159028F5F8F732091E2
:101690005A02821741F0E0915902F0E0E05CFD4F00
:1016A000958F80935902FF91EF919F918F912F9188
:1016B0000F900FBE0F901F9018958081F4CF1F924E
:1016C0000F920FB60F9211242F933F934F935F9376
:1016D0006F937F938F939F93AF93BF93EF93FF93FA
:1016E0008091B900887F803609F44AC0F0F58832CD
:1016F00009F4A7C018F5803109F49BC0B8F4882319
:1017000009F4F9C0883009F494C0FF91EF91BF91BA
:10171000AF919F918F917F916F915F914F913F9189
:101720002F910F900FBE0F901F901895883109F4DC
:1017300088C0803251F78093140214C0803409F4B9
:101740009DC040F48033B9F38833F9F680931402D6
:1017500085ECB0C0803509F485C0883509F496C0A1
:10176000883499F60E94370AD0CF883909F48CC0A2
:1017700038F5883729F050F4883611F0803729F68B
:1017800083E0809316021092B50157C0883809F49F
:101790007BC0803919F0803809F0B7CF8091B5014E
:1017A000803208F071C0E091B50181E08E0F809326
:1017B000B5018091BB00F0E0EB56FE4F80833DC049
:1017C000803B39F0E0F4803A09F479C0883A09F0B6
:1017D0009CCF84E0809316021092940110929301A2
:1017E000E091CC01F091CD01099580919301811197
:1017F0000FC081E0809393011092730109C0803C77
:1018000009F4A6CF883C09F4A3CF883B09F07DCF2B
:10181000E091940181E08E0F80939401F0E0ED5807
:10182000FE4F80818093BB00909194018091930141
:1018300029C08091F1018093BB0085EC8093BC00AE
:1018400064CF9091130280911202981758F5E0919D
:10185000130281E08E0F80931302F0E0EE50FE4FF2
:101860008081E9CFE091130281E08E0F8093130213
:101870008091BB00F0E0EE50FE4F80839091130208
:10188000809112029817C8F285E8D8CFE091130230
:1018900081E08E0F809313028091BB00F0E0EE5048
:1018A000FE4F80838091150281115CCF81E080938F
:1018B000F00184EA8093BC001092160226CF85ECDA
:1018C0008093BC00109216028091B501803230F4F2
:1018D000E091B501F0E0EB56FE4F10826091B5014A
:1018E00070E0E091CA01F091CB0185E991E00995A2
:1018F0001092B5010ACF1092140234CF1F920F92AA
:101900000FB60F9211248F938091C0018F5F809347
:10191000C0018F910F900FBE0F901F901895E0E4BB
:10192000F2E01382128248EE53E060E070E04483FC
:1019300055836683778380E391E09183808385EC90
:1019400090E09587848784EC90E09787868780EC89
:1019500090E0918B808B81EC90E0938B828B82EC7A
:1019600090E0958B848B86EC90E0978B868B118E24
:10197000128E138E148EEEEDF2E01382128282E448
:1019800091E09183808380E5848781E085878DED78
:1019900092E0978786878AE090E0918B808B89E040
:1019A00090E0938B828B82E090E0958B848B168AFB
:1019B000178A108E118E138E128E158E148E178E1E
:1019C000168E11A210A21482158216821782A0E030
:1019D000B3E013961C921E92129714964D935D934A
:1019E0006D937C93179784E591E011969C938E9369
:1019F000ECE0F3E013861286B187A08780E090E0E8
:101A0000A0ECBFE780839183A283B3838483958313
:101A1000A683B7830895CF93DF93CDB7DEB76C97D6
:101A20000FB6F894DEBF0FBECDBF789484B5826048
:101A300084BD84B5816084BD85B5826085BD85B572
:101A4000816085BD80916E00816080936E001092F0
:101A5000810080918100826080938100809181006B
:101A600081608093810080918000816080938000FC
:101A70008091B10084608093B1008091B00081605A
:101A80008093B00080917A00846080937A00809186
:101A90007A00826080937A0080917A008E7F8093B2
:101AA0007A0080917A00806880937A001092C10059
:101AB00009EB11E0F12CE12CC7010E944112F80161
:101AC00081938F01FFEFEF1AFF0A26E0E216F1047F
:101AD00099F71092BF0182E490E00E94411289833D
:101AE00083E490E00E9441128A8384E490E00E94A3
:101AF00041128B8385E490E00E9441128C8389819E
:101B00009A81AB81BC81AC01BD0141505109610991
:101B100071094E3F5F4F6F4F7F4F20F080E890E597
:101B2000AEEDB9E18093040190930501A093060105
:101B3000B0930701E0915002F091510282E080835E
:101B4000E0914C02F0914D021082E0914E02F09132
:101B50004F0288E0808310925802E0915402F09185
:101B6000550286E08083E0915202F0915302808119
:101B700080618083E0915202F091530280818860FD
:101B80008083E0915202F0915302808180688083CB
:101B9000E0915202F091530280818F7D80830E94F8
:101BA00063040E94B10888E690E00E94AE02609152
:101BB00004017091050180910601909107014AE0AE
:101BC0000E9417098EE691E00E940A0980E492E0E3
:101BD0000E94C90239E0632E712C22E0422E512C62
:101BE0008091B9019091BA01A091BB01B091BC0163
:101BF00089839A83AB83BC8380E094E20E940507CB
:101C00008111C1C0C12CD12C90ECE92E9FE7F92E97
:101C100080E094E20E9405078111C3C0812C912CC1
:101C200080ECA82E8FE7B82EA7019601C701B60158
:101C30000E946B13811109C0A5019401C501B40173
:101C40000E946B1311E0882339F010E0C12CD12CD5
:101C50000FE7E02E03E4F02ECD82DE82EF82F886DD
:101C6000111106C0812C912CBFE7AB2EB3E4BB2E23
:101C700089869A86AB86BC8641E0BE01675E7F4F4F
:101C800083EF0E943C07F82E40E0BE016B5E7F4F61
:101C900085EF0E943C0740E050E06FE773E4FF20CF
:101CA00029F0498D5A8D6B8D7C8DF82E4D875E877E
:101CB0006F87788B882309F482C08D899E89AF89CC
:101CC000B88D898B9A8BAB8BBC8B111103C0FF2015
:101CD00009F47AC01092B8011092B7018091B8014E
:101CE000833008F487C01092B8018091B7018F5FEC
:101CF0008093B7018FE890E00E94AE028EE691E0FB
:101D00000E940A090E94380462E082E10E943801C0
:101D100061E083E10E94380119E061E083E10E9403
:101D2000EC0086E090E00197F1F760E083E10E942B
:101D3000EC0086E090E00197F1F7115071F762E056
:101D400083E10E9438010E9463040E94B1088091DF
:101D5000B701823008F44EC087EA90E00E94AE02DC
:101D60008EE691E00E940A0980E492E00E94C90296
:101D700088E198E00FB6F894A895809360000FBEB4
:101D800090936000FFCF0E942108882309F43ACF86
:101D9000C0901003D0901103E0901203F090130351
:101DA00037CF0E942108882309F438CF80900C0394
:101DB00090900D03A0900E03B0900F0335CF80E0FC
:101DC00090E0AFE7B3E47DCF6091B80111E0160F6A
:101DD0001093B8018FED90E00E94AE02612F70E089
:101DE00090E080E04AE00E9417098EE691E00E94B0
:101DF0000A0974CF8AE090E09093EF028093EE029C
:101E00007092F1026092F0025092F3024092F2025C
:101E1000C0900401D0900501E0900601F090070108
:101E200061E00E94380161E08091EE020E94EC00C6
:101E30008091F0029091F1028F3F9807C9F061E024
:101E40000E94380160E08091F0020E94EC006AE09C
:101E500070E080E090E00E948E0161E08091F002ED
:101E60000E94EC006AE070E080E090E00E948E0149
:101E70001FB7F8948091B601811127C0EDE0F1E021
:101E80008491E1E2F1E09491E82FF0E0EE0FFF1F82
:101E9000E151FF4FA591B4918C91982321F461E019
:101EA0008AE00E94EC0061E08AE00E9438018CB573
:101EB00080618CBD8CB580648CBD61E08DE00E943A
:101EC000380161E08BE00E9438018091B6018F5F9C
:101ED0008093B6011FBF62E48EED92E00E940E0374
:101EE000823109F076C040E861E88EED92E00E9410
:101EF000E902C092F402D092F502E092F602F0926A
:101F0000F70246015701BB0C8808982C5401960132
:101F1000A701682D782D882D982D03E10E941014BB
:101F2000A12CE8E4BE2EF8EECF2EDD24D394E12CD4
:101F3000F12C00E010E00E94B313F22E332E5A0170
:101F4000162FC72ED82EE92E00E10E942B14422F07
:101F500066E88EED92E00E94E9022F2D332DA50157
:101F6000612F7C2D8D2D9E2D08E00E942B14422F79
:101F700067E88EED92E00E94E9024F2D68E88EED51
:101F800092E00E94E90240E06EE88EED92E00E944D
:101F9000E90240E06FE88EED92E00E94E9026CE019
:101FA0008EED92E00E940E03482F43606CE88EEDA8
:101FB00092E00E94E90244E066EA8EED92E00E941F
:101FC000E9020E949F0841E861E88EED92E00E94DC
:101FD000E90243EC61EB8EED92E00E94E9024AE0F7
:101FE00067EB8EED92E00E94E9026EE18EED92E0E9
:101FF0000E940E038F70482F40676EE98EED92E0CD
:102000000E94E9020E9411036DE18EED92E00E94B0
:102010000E038F70482F40676DE98EED92E00E94AD
:10202000E9020E9411036DE18EED92E00E940E0321
:10203000817F482F42606DE98EED92E00E94E902B7
:102040000E949F0840E060EA8EED92E00E94E90263
:1020500048E061EA8EED92E00E94E90242E169EB1C
:102060008EED92E00E94E90286ED90E00E94AE02C1
:10207000CE0101960E940A0980ED90E00E94AE0216
:102080006D817E818F81988542E00E945B098AEC98
:1020900090E00E94AE0269857A858B859C8542E03E
:1020A0000E945B0984EC90E00E94AE026D857E8503
:1020B0008F85988942E00E945B098EEB90E00E9438
:1020C000AE0269897A898B899C8942E00E945B090A
:1020D0008EE691E00E940A0980E492E00E94C90223
:1020E00061E08EED92E00E940E038370833079F1FF
:1020F00062E18EED92E00E940E0383FF06C048E08D
:1021000062E98EED92E00E94E90241E861E88EED1D
:1021100092E00E94E9021092FB021092FA026DE135
:102120008EED92E00E940E03482F4E7F6DE98EEDFA
:1021300092E00E94E90240E06DE88EED92E00E949C
:10214000E90240E062EA8EED92E00E94E90244E199
:1021500050E0BE016F5F7F4F8EED92E00E94C003A2
:1021600043E861E88EED92E00E94E90262E18EEDC3
:1021700092E00E940E0383FFF9CF48E062E98EED02
:1021800092E00E94E90240E861E88EED92E00E9450
:10219000E9021092C00184B7877F84BF80916000FC
:1021A00088618093600081E6809360008091640084
:1021B00081608093640080916400826080936400F9
:1021C0008091C00181110EC083B7817F846083BF7D
:1021D000F89483B7816083BF7894889583B78E7FA6
:1021E00083BFEECF0FB6F894A89580916000886108
:1021F00080936000109260000FBE809164008E7F1B
:1022000080936400809164008D7F8093640080E0FF
:1022100090E0892B09F4E4CC0E942B02882309F476
:10222000DCCC0E940000D9CC80911603909117035A
:10223000009711F00C94E81408950E945F1108F4BF
:1022400081E00895E89409C097FB3EF4909580954D
:10225000709561957F4F8F4F9F4F9923A9F0F92F6C
:1022600096E9BB279395F695879577956795B795EA
:10227000F111F8CFFAF4BB0F11F460FF1BC06F5FD0
:102280007F4F8F4F9F4F16C0882311F096E911C0E2
:10229000772321F09EE8872F762F05C0662371F003
:1022A00096E8862F70E060E02AF09A95660F771F17
:1022B000881FDAF7880F9695879597F90895990FF3
:1022C0000008550FAA0BE0E8FEEF16161706E80700
:1022D000F907C0F012161306E407F50798F0621B21
:1022E000730B840B950B39F40A2661F0232B242BF6
:1022F000252B21F408950A2609F4A140A6958FEF15
:10230000811D811D08950E9496110C9407120E9450
:10231000F91138F00E94001220F0952311F00C946E
:10232000F0110C94F61111240C943B120E94181217
:1023300070F3959FC1F3950F50E0551F629FF00118
:10234000729FBB27F00DB11D639FAA27F00DB11D31
:10235000AA1F649F6627B00DA11D661F829F2227BA
:10236000B00DA11D621F739FB00DA11D621F839F41
:10237000A00D611D221F749F3327A00D611D231F17
:10238000849F600D211D822F762F6A2F11249F5765
:1023900050409AF0F1F088234AF0EE0FFF1FBB1F68
:1023A000661F771F881F91505040A9F79E3F510527
:1023B00080F00C94F0110C943B125F3FE4F3983ED4
:1023C000D4F3869577956795B795F795E7959F5FD1
:1023D000C1F7FE2B880F911D9695879597F9089563
:1023E00097F99F6780E870E060E008959FEF80ECC8
:1023F000089500240A94161617061806090608956B
:1024000000240A9412161306140605060895092ED0
:102410000394000C11F4882352F0BB0F40F4BF2B3F
:1024200011F460FF04C06F5F7F4F8F4F9F4F08957F
:1024300057FD9058440F551F59F05F3F71F0479575
:10244000880F97FB991F61F09F3F79F0879508955A
:10245000121613061406551FF2CF4695F1DF08C079
:10246000161617061806991FF1CF86957105610596
:1024700008940895E894BB2766277727CB0197F93E
:102480000895F999FECF92BD81BDF89A992780B53C
:102490000895A29FB001B39FC001A39F700D811D3D
:1024A0001124911DB29F700D811D1124911D08955D
:1024B0005058BB27AA270E9470120C9407120E9442
:1024C000F91138F00E94001220F039F49F3F19F4FE
:1024D00026F40C94F6110EF4E095E7FB0C94F01141
:1024E000E92F0E94181258F3BA176207730784077E
:1024F000950720F079F4A6F50C943A120EF4E095C5
:102500000B2EBA2FA02D0B01B90190010C01CA01AD
:10251000A0011124FF27591B99F0593F50F4503E58
:1025200068F11A16F040A22F232F342F4427585F4A
:10253000F3CF469537952795A795F0405395C9F762
:102540007EF41F16BA0B620B730B840BBAF091501A
:10255000A1F0FF0FBB1F661F771F881FC2F70EC0B9
:10256000BA0F621F731F841F48F48795779567958C
:10257000B795F7959E3F08F0B0CF9395880F08F078
:102580009927EE0F9795879508950E94D9120C947C
:1025900007120E94001258F00E94F91140F029F42D
:1025A0005F3F29F00C94F01151110C943B120C94E4
:1025B000F6110E94181268F39923B1F3552391F391
:1025C000951B550BBB27AA2762177307840738F0A2
:1025D0009F5F5F4F220F331F441FAA1FA9F335D0FF
:1025E0000E2E3AF0E0E832D091505040E695001CB3
:1025F000CAF72BD0FE2F29D0660F771F881FBB1F6D
:10260000261737074807AB07B0E809F0BB0B802D4A
:10261000BF01FF2793585F4F3AF09E3F510578F076
:102620000C94F0110C943B125F3FE4F3983ED4F30A
:10263000869577956795B795F7959F5FC9F7880F4A
:10264000911D9695879597F90895E1E0660F771F9C
:10265000881FBB1F621773078407BA0720F0621B2D
:10266000730B840BBA0BEE1F88F7E09508950E9458
:10267000201288F09F5798F0B92F9927B751B0F0E2
:10268000E1F0660F771F881F991F1AF0BA95C9F7F6
:1026900014C0B13091F00E943A12B1E008950C9448
:1026A0003A12672F782F8827B85F39F0B93FCCF3FB
:1026B000869577956795B395D9F73EF49095809573
:1026C000709561957F4F8F4F9F4F08950E945F11C6
:1026D00008F48FEF08950E945F11880B990B0895FD
:1026E000A1E21A2EAA1BBB1BFD010DC0AA1FBB1F16
:1026F000EE1FFF1FA217B307E407F50720F0A21B88
:10270000B30BE40BF50B661F771F881F991F1A94F4
:1027100069F760957095809590959B01AC01BD011E
:10272000CF010895052E97FB1EF400940E94A91373
:1027300057FD07D00E94701307FC03D04EF40C9491
:10274000A91350954095309521953F4F4F4F5F4FBE
:10275000089590958095709561957F4F8F4F9F4F0D
:102760000895689401C0E8948F929F92CF93DF936D
:102770000E94BF13DF91CF919F908F90089588247E
:102780009924F401E401B0E49F93AA279A158B04DD
:102790009C04ED05FE05CF05D007A10798F4AD2FE9
:1027A000DC2FCF2FFE2FE92D982C892E982F872FE5
:1027B000762F652F542F432F322F2227B85031F711
:1027C000BF9127C01B2EBF91BB27220F331F441F71
:1027D000551F661F771F881F991F881C991CEE1FA5
:1027E000FF1FCC1FDD1FAA1FBB1F8A149B04EC0513
:1027F000FD05CE05DF05A007B10748F08A189B0844
:10280000EC09FD09CE09DF09A00BB10B21601A9478
:10281000E1F62EF49401AF01BE01CD01000C089544
:10282000002E083090F0982F872F762F652F542F89
:10283000432F322F22270850F4CF220F331F441F7B
:10284000551F661F771F881F991F0A95B2F7002D25
:10285000089597FD1094002E083098F00850232F0B
:10286000342F452F562F672F782F892F912DF4CF96
:1028700015949795879577956795579547953795CB
:1028800027950A95AAF71124002D0895EE0FFF1F32
:102890000590F491E02D09940F931F93CF93DF934C
:1028A0008230910510F482E090E0E0911A03F091FB
:1028B0001B0330E020E0B0E0A0E0309799F4211550
:1028C000310509F44AC0281B390B24303105D8F5ED
:1028D0008A819B816115710589F1FB019383828354
:1028E000FE0111C0408151810281138148175907AF
:1028F000E0F04817590799F4109761F012960C937D
:10290000129713961C933296CF01DF91CF911F91AE
:102910000F91089500931A0310931B03F4CF211510
:10292000310551F04217530738F0A901DB019A0134
:10293000BD01DF01F801C1CFEF01F9CF90931B0377
:1029400080931A03CDCFFE01E20FF31F8193919381
:102950002250310939832883D7CF20911803309131
:102960001903232B41F420910A0130910B0130937C
:1029700019032093180320910801309109012115B2
:10298000310541F42DB73EB740910C0150910D0136
:10299000241B350BE0911803F0911903E217F3079C
:1029A000A0F42E1B3F0B2817390778F0AC014E5FBF
:1029B0005F4F2417350748F04E0F5F1F50931903E0
:1029C00040931803819391939FCFF0E0E0E09CCF78
:1029D000CF93DF930097E9F0FC01329713821282C4
:1029E000A0911A03B0911B03ED0130E020E0109795
:1029F000A1F420813181820F931F2091180330911F
:102A000019032817390709F061C0F0931903E093FF
:102A10001803DF91CF910895EA01CE17DF07E8F59B
:102A20004A815B819E0141155105B1F7E901FB83A4
:102A3000EA8349915991C40FD51FEC17FD0761F442
:102A4000808191810296840F951FE9019983888383
:102A5000828193819B838A83F0E0E0E012968D91DE
:102A60009C9113970097B9F52D913C911197CD0149
:102A70000296820F931F2091180330911903281793
:102A8000390739F6309751F510921B0310921A034B
:102A9000B0931903A0931803BCCFD383C2834081A2
:102AA0005181840F951FC817D90761F44E5F5F4F9E
:102AB00088819981480F591F518340838A819B8166
:102AC000938382832115310509F0B0CFF0931B0366
:102AD000E0931A039ECFFD01DC01C0CF1382128266
:102AE000D7CF10E0C1EAD0E004C0FE010E94461436
:0C2AF0002196C23AD107C9F7F894FFCF35
:102AFC00C001C0018050DE1900001C038000781E4C
:102B0C0000A02800F03C00405100127A00E4A20022
:102B1C0024F40048E80190D00320A1070000000035
:102B2C006102C101EE01C9021F02FD011102000088
:102B3C000000FB03C00302077003B2039703710389
:102B4C0000000000D306A606020770039F068C0641
:102B5C007D066E616E00696E66006F7666000D0A0A
:022B6C00000067
:00000001FF
